:100000000C94A40E0C94D50E0C94D50E0C94D50E15
:100010000C94D50E0C94D50E0C94D50E0C94D50ED4
:100020000C94D50E0C94D50E0C94D50E0C94D50EC4
:100030000C94D50E0C944F4A0C94D50E0C94D50EFE
:100040000C94D50E0C9418970C94D50E0C94D50ED8
:100050000C94D50E0C94D50E0C94BAA50C943F8F2D
:100060000C94D50E0C9456330C94D50E0C94D50EDE
:100070000C94D50E0C94D50E0C94D50E0C94D50E74
:100080000C94D50E0C94D50E0C94D50E0C94D50E64
:100090000C94D50E0C94D50E0C94D50E0C94D50E54
:1000A0000C94D50E0C94D50E0C94D50E0C94D50E44
:1000B0000C94D50E0C94D50E0C94D50E0C94D50E34
:1000C0000C94D50E0C94D50E0C94D50E0C94D50E24
:1000D0000C94D50E0C94D50E0C94D50E0C94D50E14
:1000E0000C94D50EBC8DBF8DAE8DB28DB88DF68DB6
:1000F000C38DC78DCD8DD18DD58DDB8DDF8DE38DFE
:10010000F68DE98DED8DF18D5B8E608E658E6F8E37
:10011000798EF28E838E8B8E938E9D8EA78EB18E6E
:10012000C08ECA8EF28ED48EDE8EE88E16A625A6DE
:1001300041A650A66AA679A693A697A699A69DA6BB
:10014000A5A6084AD73B3BCE016E84BCBFFDC12F9C
:100150003D6C74319ABD56833DDA3D00C77F11BEB8
:10016000D9E4BB4C3E916BAAAABE000000803F05BB
:10017000A84CCDB2D44EB93836A9020C50B99186EC
:1001800088083CA6AAAA2ABE000000803F004E4173
:100190004E494E495459494E46CDCCCC3D0AD72301
:1001A0003C17B7D13877CC2B329595E6241FB14F49
:1001B0000A000020410000C84200401C4620BCBE8E
:1001C0004CCA1B0E5AAEC59D742F0053442070724A
:1001D000696E74696E67206279746520004E6F7471
:1001E000205344207072696E74696E67002E00445B
:1001F000656C6574696F6E206661696C65642C203E
:1002000046696C653A200046696C652064656C65DA
:100210007465643A002E006F70656E206661696CCB
:1002200065642C2046696C653A20005049442041A1
:1002300075746F74756E652066696E697368656440
:10024000212050757420746865206C617374204B94
:10025000702C204B6920616E64204B6420636F6EAC
:100260007374616E74732066726F6D2061626F7655
:100270006520696E746F20436F6E66696775726181
:1002800074696F6E2E6800504944204175746F7414
:10029000756E65206661696C6564212074696D65A1
:1002A0006F75740020403A006F6B20543A006F6BFA
:1002B00020423A00504944204175746F74756E6550
:1002C000206661696C6564212054656D706572619A
:1002D0007475726520746F6F206869676800204BC1
:1002E000643A2000204B693A2000204B703A2000ED
:1002F00020436C617373696320504944200020548B
:10030000753A2000204B753A2000206D61783A2024
:1003100000206D696E3A200020643A200020626956
:1003200061733A20002200556E6B6E6F776E20630A
:100330006F6D6D616E643A2022004368616E67657F
:100340002066696C616D656E74005A204F66667335
:100350006574203A20007A5F6D61783A20007A5FF8
:100360006D696E3A20005A204F6666736574005AB4
:10037000204F6666736574206F6B007A5F6D6178DD
:100380003A20007A5F6D696E3A2000795F6D61787E
:100390003A2000795F6D696E3A2000785F6D617870
:1003A0003A2000785F6D696E3A2000205A3A0020AA
:1003B000593A0020436F756E7420583A200020454A
:1003C0003A00205A3A0020593A00583A0046495219
:1003D0004D574152455F4E414D453A4D61726C69F2
:1003E0006E2056313B20537072696E7465722F67B0
:1003F00072626C206D617368757020666F72206721
:10040000656E36204649524D574152455F55524C14
:100410003A68747470733A2F2F6769746875622E26
:10042000636F6D2F4D61726C696E4669726D776195
:1004300072652F4D61726C696E2050524F544F435C
:100440004F4C5F56455253494F4E3A312E30204D56
:10045000414348494E455F545950453A4D656E6495
:10046000656C2045585452554445525F434F554E94
:10047000543A3120555549443A30303030303030DC
:10048000302D303030302D303030302D3030303075
:100490002D3030303030303030303030300A004D98
:1004A000656E64656C204F66662E004D656E6465F2
:1004B0006C2072656164792E0042656420646F6E01
:1004C000652E0020423A0020453A00543A00426529
:1004D000642048656174696E672E004865617469BF
:1004E0006E6720646F6E652E0020573A0020453AF3
:1004F00000543A0048656174696E672E2E2E002004
:1005000042403A0020403A00202F003A0020540098
:10051000202F0020423A00202F006F6B20543A0019
:100520002569206D696E2C2025692073656300455F
:100530006E642066696C65206C697374004265673F
:10054000696E2066696C65206C697374004E6F205B
:100550006D6F76652E004D656E64656C2072656109
:1005600064792E00526573756D696E6720707269CB
:100570006E74005761697420666F722075736572BE
:100580002E2E2E00536C6565702E2E2E00204400FA
:100590002049002020204D33303120500050494464
:1005A0002073657474696E67733A00205A0020598D
:1005B0000020204D323036205800486F6D65206F86
:1005C000666673657420286D6D293A002045002009
:1005D0005A0020580020420020540020204D323084
:1005E00035205300416476616E63656420766172E4
:1005F0006961626C65733A20533D4D696E20666592
:1006000065647261746520286D6D2F73292C2054E8
:100610003D4D696E2074726176656C206665656417
:100620007261746520286D6D2F73292C20423D6DF9
:10063000696E696D756D207365676D656E74207484
:10064000696D6520286D73292C20583D6D6178698E
:100650006D756D205859206A65726B20286D6D2F5D
:1006600073292C20205A3D6D6178696D756D205A73
:10067000206A65726B20286D6D2F73292C20204510
:100680003D6D6178696D756D2045206A65726B20DE
:10069000286D6D2F73290020540020204D323034F6
:1006A000205300416363656C65726174696F6E3AD3
:1006B00020533D616363656C65726174696F6E2C74
:1006C00020543D7265747261637420616363656C6C
:1006D00065726174696F6E00204500205A002059D0
:1006E0000020204D3230312058004D6178696D7501
:1006F0006D20416363656C65726174696F6E20285B
:100700006D6D2F7332293A00204500205A00205980
:100710000020204D3230332058004D6178696D75CE
:100720006D2066656564726174657320286D6D2F38
:1007300073293A00204500205A0020590020204DFE
:1007400039322058005374657073207065722075BB
:100750006E69743A0048617264636F646564204432
:10076000656661756C742053657474696E67732077
:100770004C6F61646564002200656E717565696E19
:10078000672022004D383420582059205A20450037
:10079000256920686F757273202569206D696E75F3
:1007A00074657300446F6E65207072696E74696E53
:1007B000672066696C650053544F505045442E20A5
:1007C000005072696E7465722073746F7070656426
:1007D0002064756520746F206572726F72732E20AD
:1007E00046697820746865206572726F7220616E48
:1007F0006420757365204D39393920746F20726516
:1008000073746172742E202854656D706572617402
:100810007572652069732072657365742E20536547
:1008200074206974206166746572207265737461E6
:100830007274696E6729004E6F204C696E65204E98
:10084000756D626572207769746820636865636B93
:1008500073756D2C204C617374204C696E653A2061
:10086000004E6F20436865636B73756D2077697404
:1008700068206C696E65206E756D6265722C204C07
:10088000617374204C696E653A2000636865636B20
:1008900073756D206D69736D617463682C204C6194
:1008A0007374204C696E653A20004C696E65204E69
:1008B000756D626572206973206E6F74204C617370
:1008C00074204C696E65204E756D6265722B312CFB
:1008D000204C617374204C696E653A20004D3131B3
:1008E000300020746F6F206C6F6E672065787472B3
:1008F0007573696F6E2070726576656E74656400DD
:1009000020636F6C6420657874727573696F6E20F4
:1009100070726576656E74656400000022002500C3
:1009200028002B002E0031003400020100000501D8
:1009300008010B01000020002300260029002C00E4
:100940002F00320000010000030106010901050526
:100950000505070508080808020202020A0A080835
:100960000404040401010101010101010303030363
:1009700003030303040707070C0C0C0C0C0C0C0CF2
:100980000202020206060606060606060B0B0B0B03
:100990000B0B0B0B01021020200808102040102028
:1009A0004080020102010804020101020408102033
:1009B0004080804020100804020180040201804031
:1009C000201008040201080402010102040810209A
:1009D0004080010204081020408000000A0B020938
:1009E0000C0D0E08070304010000000000000000C9
:1009F00000000000000000000000000000000000F7
:100A000000000000000012111000000000000000B3
:100A100000000000000000000000000000000000D6
:100A2000022020506C616E6E65724275666665725A
:100A300042797465733A20002046726565204D65E1
:100A40006D6F72793A200041756720203220323074
:100A5000313900436F6D70696C65643A20004D4711
:100A600000207C20417574686F723A2000417567E0
:100A700020203220323031392031303A30353A328C
:100A80003300204C61737420557064617465643A5E
:100A90002000312E302E30004D61726C696E0020C6
:100AA000536F6674776172652052657365740020B8
:100AB0005761746368646F672052657365740020C2
:100AC00042726F776E206F75742052657365740083
:100AD0002045787465726E616C2052657365740090
:100AE000506F77657255700073746172740065722F
:100AF000726F722077726974696E6720746F2066F6
:100B0000696C6500656E6473746F707320686974D6
:100B10003A205A00205A3A00656E6473746F7073FD
:100B2000206869743A20590020593A00656E647350
:100B3000746F7073206869743A20580020583A0026
:100B4000656E6473746F7073206869743A20004432
:100B50006F6E6520736176696E672066696C652EBD
:100B6000006F6B004D3239002D2D3A2D2D002D2DAB
:100B70002D005344002059000120004D38342058E6
:100B80002059205A2045004E6F2053442063617243
:100B900064005072696E742066726F6D2053440059
:100BA00053746F70207072696E7400526573756D46
:100BB00065207072696E7400506175736520707283
:100BC000696E7400436F6E74726F6C005072657062
:100BD0006172650054756E6500496E666F207363BF
:100BE0007265656E004D363030004368616E676532
:100BF0002066696C616D656E7400466C6F7720329B
:100C000000466C6F77203200466C6F7720310046CB
:100C10006C6F77203100466C6F77203000466C6F28
:100C200077203000466C6F7700466C6F7700466126
:100C30006E2073706565640046616E207370656533
:100C400064004E6F7A7A6C6533004E6F7A7A6C6509
:100C500033004E6F7A7A6C6532004E6F7A7A6C652B
:100C600032004E6F7A7A6C65004E6F7A7A6C65004E
:100C70005370656564005370656564004D61696E0D
:100C8000004D3234004D3233202573006175746F8E
:100C900025692E670053442063617264206F6B00E6
:100CA0006F70656E526F6F74206661696C65640069
:100CB000766F6C756D652E696E6974206661696CFE
:100CC0006564004572726F723A00534420696E6920
:100CD00074206661696C006563686F3A00507265E4
:100CE0006865617420504C4120416C6C0050726505
:100CF0006865617420504C4120330050726568650E
:100D0000617420504C4120320050726568656174F6
:100D100020504C4120310050726570617265005066
:100D20007265686561742041425320416C6C0050CB
:100D300072656865617420414253203300507265CA
:100D400068656174204142532032005072656865C5
:100D500061742041425320310050726570617265A8
:100D6000004D333030205336393820503230300087
:100D70004D33303020533635392050323030004D2D
:100D80006F76652061786973004D3830005377695C
:100D900074636820706F776572206F6E004D383114
:100DA0000053776974636820706F776572206F668F
:100DB0006600436F6F6C646F776E00507265686594
:100DC000617420414253005072656865617420501F
:100DD0004C410053657420686F6D65206F666673C3
:100DE00065747300473238004175746F20686F6D09
:100DF00065004D38340044697361626C652073741A
:100E0000657070657273004D61696E00580059001D
:100E10005A0045787472756465720045787472750D
:100E2000646572004D6F7665205A004D6F766520BF
:100E300059004D6F76652058004D6F7665206178BA
:100E400069730057726974696E6720746F206669F0
:100E50006C653A20002E006F70656E206661696CCB
:100E600065642C2046696C653A20002E006F706521
:100E70006E206661696C65642C2046696C653A2059
:100E80000046696C652073656C6563746564002059
:100E900053697A653A200046696C65206F70656E0B
:100EA00065643A20002E006F70656E206661696C83
:100EB00065642C2046696C653A20004E6F77206689
:100EC000726573682066696C653A20004E6F772002
:100ED000646F696E672066696C653A200022207035
:100EE0006F73002220706172656E743A2200535550
:100EF00042524F5554494E452043414C4C20746159
:100F0000726765743A2200747279696E6720746F33
:100F10002063616C6C207375622D67636F6465205C
:100F200066696C6573207769746820746F6F206DD3
:100F3000616E79206C6576656C732E204D4158206A
:100F40006C6576656C2069733A007C3C3E5E2B3D97
:100F50003F2F5B5D3B2C2A225C004D6F7665203075
:100F60002E316D6D004D6F766520316D6D004D6FCA
:100F700076652031306D6D0050726570617265006C
:100F8000526573746F7265206661696C7361666522
:100F90000046696C616D656E74004D6F74696F6EAB
:100FA0000054656D7065726174757265004D61699C
:100FB0006E00507265686561742041425320636F12
:100FC0006E66005072656865617420504C41206304
:100FD0006F6E66005049442D43005049442D430034
:100FE0005049442D44005049442D44005049442D5B
:100FF00049005049442D49005049442D5000504962
:10100000442D5000200220466163740020022046D7
:10101000616374002002204D6178002002204D6140
:1010200078002002204D696E002002204D696E007C
:101030004F6666004F6E20004F6666004F6E2000C0
:101040004175746F74656D700046616E20737065D4
:1010500065640046616E207370656564004E6F7A4A
:101060007A6C6533004E6F7A7A6C6533004E6F7A16
:101070007A6C6532004E6F7A7A6C6532004E6F7A08
:101080007A6C65004E6F7A7A6C6500436F6E74728D
:101090006F6C00526573656E643A20006F6B004B95
:1010A000494C4C45442E20005072696E7465722084
:1010B00068616C7465642E206B696C6C28292063F0
:1010C000616C6C6564210053544F505045442E2090
:1010D000005072696E7465722073746F707065640D
:1010E0002064756520746F206572726F72732E2094
:1010F00046697820746865206572726F7220616E2F
:101100006420757365204D39393920746F207265FC
:1011100073746172742E202854656D7065726174E9
:101120007572652069732072657365742E2053652E
:1011300074206974206166746572207265737461CD
:101140007274696E672900000096430000964300A0
:10115000006643000034C2000000C100000000002F
:10116000009643000000C1000000000000A0400005
:1011700000A040000000400080AC4300009A430003
:1011800000664301FFFF2200656E717565696E6739
:101190002022004E6F7A7A6C65004E6F7A7A6C6509
:1011A0000046616E2073706565640046616E207351
:1011B000706565640054656D706572617475726503
:1011C000004573746570732F6D6D004573746570A1
:1011D000732F6D6D005A73746570732F6D6D005AA7
:1011E00073746570732F6D6D005973746570732F10
:1011F0006D6D005973746570732F6D6D0058737445
:101200006570732F6D6D005873746570732F6D6DFD
:1012100000412D7265747261637400412D726574B2
:101220007261637400416D6178206500416D617881
:10123000206500416D6178207A00416D6178207AE7
:1012400000416D6178207900416D6178207900411D
:101250006D6178207800416D617820780056547275
:101260006176206D696E005654726176206D696EEC
:1012700000566D696E00566D696E00566D6178207E
:101280006500566D6178206500566D6178207A00A2
:10129000566D6178207A00566D6178207900566D20
:1012A0006178207900566D6178207800566D6178FC
:1012B00020780056652D6A65726B0056652D6A654B
:1012C000726B00567A2D6A65726B00567A2D6A65CC
:1012D000726B005678792D6A65726B005678792D9D
:1012E0006A65726B00416363656C00416363656CA2
:1012F00000436F6E74726F6C00436172642072659C
:101300006D6F766564004361726420696E73657207
:101310007465640000002100240027002A002D00CD
:101320003000330001010000040107010A0124F428
:10133000D43050C38E20C2A24017828B7011127A13
:10134000910D816CD90AA861E108C75866076151FF
:1013500043061E4B5D05C145A7041A411104093D12
:101360009803713931034036DB0265339102D43082
:101370005402802E1D02632CEE01752AC501B0288F
:10138000A001102781018F2564012B244B01E0224D
:101390003401AC211F018D200D01801FFC00841E33
:1013A000ED00971DDF00B81CD200E61BC600201B15
:1013B000BC00641AB200B219A8000A19A0006A1889
:1013C0009900D117910040178B00B5168400311693
:1013D0007E00B31579003A157300C7146F005814D6
:1013E0006A00EE1366008813630025135E00C712BF
:1013F0005B006C12570015125400C111510070119E
:101400004F0021114B00D61049008D1047004610A7
:10141000440002104200C00F4000800F3E00420F07
:101420003C00060F3B00CB0E3800930E37005C0EDD
:101430003500270E3400F30D3200C10D3100900D40
:101440003000600D2E00320D2D00050D2C00D90C42
:101450002B00AE0C2900850C29005C0C2700350CF4
:1014600027000E0C2600E80B2400C40B2400A00B60
:1014700023007D0B23005A0B2100390B2100180B90
:101480002000F80A1F00D90A1E00BB0A1E009D0A90
:101490001D00800A1D00630A1C00470A1B002C0A5D
:1014A0001B00110A1A00F7091A00DD091900C40906
:1014B0001900AB091900920917007B09180063098C
:1014C00017004C09160036091600200916000A09F3
:1014D0001500F5081500E0081400CC081400B80841
:1014E0001400A4081400900813007D0812006B0873
:1014F000130058081200460812003408110023088F
:1015000011001208110001081100F0071000E00797
:101510001000D0071000C0071000B0070F00A1078F
:10152000100091070E0083070F0074070F00650776
:101530000E0057070E0049070E003B070D002E074F
:101540000E0020070D0013070D0006070D00F90619
:101550000C00ED060D00E0060C00D4060C00C806D9
:101560000C00BC060C00B0060C00A4060B0099068B
:101570000C008D060B0082060B0077060B006C0634
:101580000B0061060A0057060B004C060A004206D3
:101590000A0038060A002E060A0024060A001A0667
:1015A0000A001006090007060A00FD050900F405F7
:1015B0000900EB050900E2050900D9050900D0057D
:1015C0000900C7050900BE050900B5050800AD05FD
:1015D0000800A50509009C050800940508008C0575
:1015E0000800840508007C050800740508006C05E7
:1015F0000700650508005D050700560508004E0553
:1016000007004705070040050800380507003105B9
:1016100007002A050700230507001C05060016051C
:1016200007000F0507000805060002050700FB0478
:101630000600F5040700EE040600E8040600E204D4
:101640000700DB040600D5040600CF040600C90429
:101650000600C3040600BD040600B7040600B1047A
:101660000500AC040600A6040600A00405009B04C7
:10167000060095040500900406008A040500850410
:101680000500800406007A04050075040500700456
:1016900005006B04050066040500610405005C0498
:1016A000050057040500520405004D0405004804D8
:1016B0000500430405003E0404003A040500350417
:1016C0000500300404002C04050027040400230452
:1016D00005001E0404001A04040016040500110489
:1016E00004000D04040009040500040404000004BF
:1016F0000400FC030400F8030400F4030400F003F6
:101700000400EC030400E8030400E4030400E00325
:101710000400DC030400D8030400D4030400D00355
:101720000400CC030400C8030300C503030024F431
:1017300004D9201BC40C5C0E9804C4095F02650721
:101740007101F405F900FB04B30048048700C103EC
:1017500069005803550003034500BE023A008402A5
:10176000310053022A002902250004022000E4016E
:101770001C00C8011900AF01170098011400840172
:101780001300710110006101100051010E004301AE
:101790000D0036010B002B010B0020010B00150181
:1017A00009000C01090003010800FB000800F30018
:1017B0000800EB000700E4000600DE000600D80089
:1017C0000600D2000600CC000500C7000500C200DC
:1017D0000500BD000400B9000400B5000400B1001C
:1017E0000400AD000400A9000400A5000300A2004D
:1017F00003009F0004009B00030098000300950075
:10180000020093000300900003008D0002008B0093
:1018100003008800020086000200840003008100AB
:1018200002007F0002007D0002007B0002007900C0
:1018300002007700010076000200740002007200CE
:101840000100710002006F0002006D0001006C00D9
:1018500002006A00010069000200670001006600E2
:1018600001006500010064000200620001006100E7
:101870000100600001005F0002005D0001005C00EB
:1018800001005B0001005A000100590001005800EE
:1018900001005700010056000100550001005400EE
:1018A00001005300000053000100520001005100EC
:1018B0000100500001004F0001004E0000004E00EA
:1018C00001004D0001004C0001004B0000004B00E6
:1018D00001004A00010049000100480000004800E2
:1018E00001004700010046000000460001004500DD
:1018F00000004500010044000100430000004300D7
:1019000001004200000042000100410000004100CF
:101910000100400001003F0000003F0001003E00C8
:1019200000003E0001003D0000003D0001003C00C1
:1019300000003C0000003C0001003B0000003B00B8
:1019400001003A0000003A000100390000003900AF
:1019500001003800000038000000380001003700A6
:10196000000037000100360000003600000036009D
:101970000100350000003500000035000100340092
:101980000000340000003400010033000000330088
:10199000000033000100320000003200000032007D
:1019A0000100310000003100000031000100300072
:1019B000000030000000300001002F0000002F0068
:1019C00000002F0000002F0001002E0000002E005C
:1019D00000002E0001002D0000002D0000002D0051
:1019E00000002D0001002C0000002C0000002C0045
:1019F00000002C0001002B0000002B0000002B0039
:101A000000002B0001002A0000002A0000002A002C
:101A100000002A0001002900000029000000290020
:101A20000000290000002900010028000000280013
:101A30000000280000002800000028000100270006
:101A400000002700000027000000270000002700FA
:101A500001002600000026000000260000002600ED
:101A600000002600010025000000250000002500E0
:101A700000002500000025000000250001002400D2
:101A800000002400000024000000240000002400C6
:101A900001002300000023000000230000002300B9
:101AA00000002300000023000000230001002200AA
:101AB000000022000000220000002200000022009E
:101AC0000000220001002100000021000000210090
:101AD0000000210000002100000021000000210082
:101AE0000100200000002000000020000000200075
:101AF0000000200000002000000020000000200066
:101B000001001F0000001F0000001F0000001F0058
:101B100000001F0000001F0000001F0001001E0049
:101B200000001E0000001E0000001E0000004669AC
:101B30006C2E204469612E20310046696C2E2044B1
:101B400069612E2031004F6666004F6E20004F669F
:101B500066004F6E20004520696E206D6D33004396
:101B60006F6E74726F6C004D3234004D323320252D
:101B7000730043616E6E6F7420656E7465722073BE
:101B800075626469723A2000052E2E004D61696EFF
:101B90000070012C0190012701B0012201C0011D3C
:101BA00001F00118011002130130020E0160020958
:101BB0000190020401C002FF000003FA004003F597
:101BC000008003F000D003EB002004E6007004E185
:101BD00000E004DC004005D700C005D2004006CD7F
:101BE00000D006C8008007C3003008BE00F008B966
:101BF00000C009B400B00AAF00B00BAA00D00CA519
:101C000000000EA000500F9B00C0109600501291D3
:101C10000000148C00C0158700B0178200B0197D39
:101C200000D01B7800001E730040206E00902269D7
:101C300000F024640040275F0090295A00E02B55F3
:101C400000102E500020304B0010324600E033418F
:101C50000090353C001037370070383200A0392D25
:101C600000B03A2800A03B2300603C1E00103D1944
:101C700000903D1400103E0F00703E0A00C03E056B
:101C800000003F0000202D20496E76616C696420C1
:101C90006578747275646572206E756D6265722008
:101CA00021004572723A204D415854454D50003A3A
:101CB00020457874727564657220737769746368FF
:101CC0006564206F66662E204D415854454D502066
:101CD0007472696767657265642021004572723AA3
:101CE000204D494E54454D50003A20457874727548
:101CF000646572207377697463686564206F6666D3
:101D00002E204D494E54454D5020747269676765C9
:101D10007265642021004E6F7A7A6C65004E6F7A8E
:101D20007A6C650046616E2073706565640046617B
:101D30006E2073706565640054656D7065726174C2
:101D4000757265002AB6E5B611241FBECFEFD1E249
:101D5000DEBFCDBF00E00CBF14E0A0E0B2E0E2EDDA
:101D6000F4E801E00BBF02C007900D92AA3CB10756
:101D7000D9F722E1AAECB4E001C01D92A938B2075C
:101D8000E1F71EE0C3EADEE000E006C021970109AA
:101D9000802FFE010E94D2C1C23AD10780E008071D
:101DA000A9F70E94FAB00C9458C20C9400002F922C
:101DB0003F924F925F926F927F928F929F92AF92DB
:101DC000BF92CF92DF92EF92FF920F931F93CF9328
:101DD000DF93CDB7DEB7C556D1090FB6F894DEBF95
:101DE0000FBECDBF87E40E94532EF82E882309F43E
:101DF000C9C20E94792E0E9464BF6430710509F443
:101E0000F4C054F46230710509F4D7C00CF0E1C09D
:101E100077FF17C00C94592A6A35710509F461C21D
:101E200034F46C31710509F427C10C94592A6B35CF
:101E3000710509F45AC26C35710509F45BC20C9442
:101E4000592A8091621281110C94592A0E9422848D
:101E500083E29CE00E94F67F0E94338F6093EB0B3D
:101E60007093EC0B8093ED0B9093EE0B2091230C71
:101E70003091240C4091250C5091260C6091EE0875
:101E80007091EF088091F0089091F1080E94D3BA08
:101E9000811174C02091270C3091280C4091290C9D
:101EA00050912A0C6091F2087091F3088091F40827
:101EB0009091F5080E94D3BA811160C020E030E013
:101EC00040E752E460914E0270914F0280915002BF
:101ED000909151020E94FCBE2FEEC22E2BE0D22E1A
:101EE0007B018C012FE23CE04BE25CE067E27CE0AE
:101EF00083E29CE00E9485398091230C9091240C10
:101F0000A091250CB091260C8093EE089093EF08D9
:101F1000A093F008B093F1088091270C9091280CC1
:101F2000A091290CB0912A0C8093F2089093F308A9
:101F3000A093F408B093F50880912B0C90912C0C91
:101F4000A0912D0CB0912E0C8093F6089093F70879
:101F5000A093F808B093F90880912F0C9091300C61
:101F6000A091310CB091320C8093FA089093FB0849
:101F7000A093FC08B093FD080C94592A60911802B4
:101F800070911902072E000C880B990B0E94D9BA88
:101F900020914E0230914F024091500250915102D7
:101FA0000E9409B720E030E040E752E40E94FCBE06
:101FB00020E030E048EC52E48DCF80916212811134
:101FC0000C94592A0E94A78481E00E948F800C946F
:101FD000592A8091621281110C94592A0E94A78477
:101FE00080E00E948F800C94592A84E895E00E943A
:101FF000B29380E50E94532E882339F00E94792EF7
:102000000E9469BF6B017C0103C0C12CD12C7601F9
:1020100083E50E94532E882361F00E94792E20E0F0
:1020200030E04AE754E40E9409B70E9469BF6B019F
:102030007C010E94F9960E94338FC60ED71EE81EBF
:10204000F91E0E94338F6093EB0B7093EC0B80931F
:10205000ED0B9093EE0B0E94338F6C157D058E0572
:102060009F0510F00C94592A0E94E69480E00E948B
:102070003F7E0E94D293EFCF80914E0290914F020B
:10208000A0915002B09151028093FA049093FB0406
:10209000A093FC04B093FD04809118029091190262
:1020A0009093F9048093F80484E690E090931902E9
:1020B000809318020E94338F6093EB0B7093EC0BAC
:1020C0008093ED0B9093EE0B11E01093130280912F
:1020D000EE089091EF08A091F008B091F10880937C
:1020E000230C9093240CA093250CB093260C809184
:1020F000F2089091F308A091F408B091F50880934C
:10210000270C9093280CA093290CB0932A0C809153
:10211000F6089091F708A091F808B091F90880931B
:102120002B0C90932C0CA0932D0CB0932E0C809123
:10213000FA089091FB08A091FC08B091FD088093EB
:102140002F0C9093300CA093310CB093320C109262
:102150004E0210924F02109250021092510288E5E6
:102160000E94532E882311F080E009C089E50E9467
:10217000532E8111F9CF8AE50E94532E8127809337
:10218000010281110C945C2A88E50E94532E811172
:102190000C945C2A8091010281110C94622A89E5D9
:1021A0000E94532E81110C94622A88E50E94532EBE
:1021B0008823D1F00E946E2E672B682B692BA1F02B
:1021C0000E94792E2091DD0B3091DE0B4091DF0BC8
:1021D0005091E00B0E9420BE6093EE087093EF08D0
:1021E0008093F0089093F10889E50E94532E88238C
:1021F000D1F00E946E2E672B682B692BA1F00E94F4
:10220000792E2091E10B3091E20B4091E30B50913C
:10221000E40B0E9420BE6093F2087093F308809351
:10222000F4089093F5088091010281110C94682ABA
:102230008AE50E94532E81110C94682A8AE50E9437
:10224000532E8823D1F00E946E2E672B682B692BAA
:10225000A1F00E94792E2091E50B3091E60B409180
:10226000E70B5091E80B0E9420BE6093F608709334
:10227000F7088093F8089093F90846EF58E062EF6A
:1022800078E08EEE98E00E946B56109213028091D7
:10229000FA049091FB04A091FC04B091FD0480939A
:1022A0004E0290934F02A0935002B093510280913E
:1022B000F8049091F90490931902809318020E94F7
:1022C000338F6093EB0B7093EC0B8093ED0B90933B
:1022D000EE0B1092420510924105109240050C94AD
:1022E000592A1092110C0C94592A81E08093110CF8
:1022F0000C94592A85E40E94532E811102C00E9439
:10230000F996B1E1AB2EB3E0BB2E1EEEE12E18E044
:10231000F12E0DEDC02E0BE0D02E10E0D5018D91E9
:102320005D010E94532E882311F1133051F40E9455
:10233000792EF70160837183828393830E9494696D
:1023400016C00E94792ED6012D913D914D915C9140
:102350000E9420BEF701608371838283938346EFDE
:1023600058E062EF78E08EEE98E00E946B561F5FB7
:10237000F4E0EF0EF11C24E0C20ED11C143071F613
:102380000C94592A8DE40E94532E882311F40C9446
:102390008E290E94792E0E9464BF6037710509F46E
:1023A00042C60CF098C06F31710509F44DC5ACF50B
:1023B0006631710509F454C2C4F46131710509F440
:1023C000E5C134F46230710508F440C10C94592A17
:1023D0006431710509F4EBC10CF03EC26231710544
:1023E00011F40C94241B0C94592A6A31710509F4D8
:1023F00070C23CF46831710509F44EC20CF436C267
:102400005EC26C31710509F4C6C20CF470C26E3143
:10241000710509F4F2C20C94592A6435710511F45E
:102420000C94241BACF56035710511F40C940E1B53
:1024300054F46032710509F468C46A32710509F414
:102440008BC50C94592A6235710511F40C941B1B31
:1024500014F00C941F1B0E94A0A50E94F996129ADA
:102460000E94069710920A0C1092090C68EE73E015
:1024700080E090E00E94FB8E269A2E9A10921A021B
:102480008FE994E00E94B2930E94D2930C94592A4F
:102490006936710509F4DAC584F46C35710511F4F7
:1024A0000C94771B6836710509F49DC56535710577
:1024B00011F00C94592A0C945C1B6B36710511F4C5
:1024C0000C94081B14F40C94D81A6D36710509F499
:1024D000AAC60C94592A6C3D710511F40C94471F3F
:1024E0000CF05AC06C38710509F49FC53CF565378E
:1024F000710511F40C94091C74F46237710511F420
:102500000C941D1C6337710511F00C94592AEDECE5
:10251000F3E00C94041C6837710511F40C94FB1C57
:102520006937710511F40C94FF1C6737710511F0C0
:102530000C94592AE4E7F3E00C940A1D6B3C7105F6
:1025400011F40C948F1E84F4683C710511F40C9402
:10255000F81D693C710511F40C946C1E6E3B7105FD
:1025600011F00C94592A1FC76D3C710511F40C949D
:10257000D01E14F40C94AE1E6E3C710511F00C9438
:10258000592A4DEDE42E4BE0F42E01E113E053E027
:10259000D52ED00E0C94371F603931E0730711F43B
:1025A0000C9493261CF56C3251E0750711F40C94D1
:1025B000E21F64F46D3D710511F40C94581F623EE6
:1025C000710511F40C94821F0C94592A6E3291E01B
:1025D000790711F40C94572314F40C9491226F3260
:1025E000714011F40C946B230C94592A6835E2E085
:1025F0007E0711F40C946A27BCF4663F21E0720751
:1026000011F40C949626673F31E0730711F40C9493
:102610009926653F714011F00C94592A0E948F331E
:102620000E94EE340C94592A603A53E0750709F47D
:10263000D6C3673E83E0780711F40C94772963359D
:10264000734011F00C94592A0C949C26E091CE040E
:10265000F091CF048F010E5F1F4F80E50E94532E33
:10266000882371F00E94792E0E9469BF6B017C0162
:10267000AA24A394672B682B692B31F4A12C04C0E6
:10268000A12CC12CD12C760183E50E94532E8823E6
:1026900091F00E94792E20E030E04AE754E40E9455
:1026A00009B70E9469BF6B017C01BB24B394672BFF
:1026B000682B692B09F4B12C6AE270E0C8010E9412
:1026C00020C2009711F0DC011C92F801CF0121918A
:1026D0002032E1F3A11007C0B11005C0222319F088
:1026E0000E94C59304C083E795E00E94B29381E005
:1026F0008093CE061092CD060E94F9960E94338FE9
:102700006093EB0B7093EC0B8093ED0B9093EE0BBF
:10271000C114D104E104F104C9F00E94338FC60E44
:10272000D71EE81EF91E0E94338F6C157D058E059D
:102730009F05C0F48091880C82FD14C00E94E6942D
:1027400080E00E943F7E0E94D293EDCF8091880C62
:1027500082FD0CC00E94E69480E00E943F7E0E94B1
:10276000D293F4CF1092CE061092CD0680914D09EF
:10277000882331F084E695E00E94B2930C94592AA4
:1027800086E595E00E94B2930C94592A8DE495E079
:102790000E94B2935F988A989FB7F894809108013D
:1027A0008E7F809308019FBF12980C94592AEDE305
:1027B000F5E08491882341F09091C00095FFFCCF13
:1027C0008093C6003196F5CF8091C00085FFFCCF85
:1027D0008AE08093C6001092D40B1092D30B40E095
:1027E00050E0BA018EE799E00E94A36A8BE1EEE720
:1027F000F9E0DE01159601900D928A95E1F780913E
:102800007C0990917D099C838B838DEE92E09A8365
:10281000898340E050E0BE016F5F7F4F89EC94E018
:102820000E948A64CE0101960E94227DEFE2F5E0CB
:102830008491882341F09091C00095FFFCCF809354
:10284000C6003196F5CF8091C00085FFFCCF8AE0AD
:102850008093C6000C94592A0E940C570C94592A54
:1028600010924D0910924E090C94592A0091CE04F1
:102870001091CF040C5F1F4F6AE270E0C8010E9404
:1028800020C2009711F0FC01108241E061E0C80114
:102890000E946C660C94592A80914E09882319F085
:1028A00081E080934D090E94338F6093C506709339
:1028B000C6068093C7069093C8060C94592A809147
:1028C0004D09882311F40C94592A10924D090C9447
:1028D000592A80914E09882311F40C94592A83E5D2
:1028E0000E94532E81110C946E2A0C94592A8091C7
:1028F0004E09882309F439C0EBECF1E08491882378
:1029000041F09091C00095FFFCCF8093C6003196B6
:10291000F5CF6091CE0B7091CF0B8091D00B909141
:10292000D10B4AE00E944C55E9ECF1E084918823F8
:1029300041F09091C00095FFFCCF8093C600319686
:10294000F5CF6091C60B7091C70B8091C80B909129
:10295000C90B4AE00E944C558091C00085FFFCCF16
:102960008AE08093C6000C94592AEDEDF1E0849141
:10297000882341F09091C00095FFFCCF8093C60062
:102980003196F5CF8091C00085FFFCCF8AE080931F
:10299000C6000C94592A8091CE049091CF046AE22B
:1029A00070E004960E9420C28C01892BD9F02091FE
:1029B000C3063091C40640E6429FC001439F900D7C
:1029C00011246EE470E08D5B9A4F0E9420C260E299
:1029D00070E00E9420C201969093CF048093CE04B1
:1029E000D8011C928091CE049091CF0441E060E028
:1029F00004960E946C660C94592A80914E09882393
:102A000011F40C94592A89E19BE00E94606A89E1E3
:102A10009BE00E94DC6B10924B0910924C09809154
:102A2000CE049091CF046AE270E004960E9420C226
:102A30008C01892BD9F02091C3063091C40640E661
:102A4000429FC001439F900D11246EE470E08D5BA6
:102A50009A4F0E9420C260E270E00E9420C201965C
:102A60009093CF048093CE04F80110820091CE049D
:102A70001091CF0480914E09882311F40C94592AA7
:102A80005801F4E0AF0EB11C89E19BE00E94DC6BC1
:102A900010924D091D8218861C821B828DEE92E0D9
:102AA0009A8389838AE799E090939A098093990998
:102AB000D80114968C918F3209F08FC06FE270E0CC
:102AC000C5010E9420C28C010F5F1F4FAAE0EA2EB1
:102AD000FE0131964F010115110509F484C06FE222
:102AE00070E0C8010E9420C26C01009709F47CC00C
:102AF0000817190708F078C03C01601A710AA30191
:102B0000B801CE0180960E9449C2E0E2F0E0EC0FED
:102B1000FD1FE60DF71D10828E01005E1F4FF801AC
:102B20008191882339F09091C00095FFFCCF80936C
:102B3000C600F6CF8091C00085FFFCCFE092C600B2
:102B40006091990970919A096115710511F06C5F96
:102B50007F4F21E0AE01405E5F4FCE0105960E949F
:102B60004371811132C0E7E1F2E08491882371F072
:102B70009091C00095FFFCCF8093C6003196F5CFB1
:102B80009091C00095FFFCCF8093C600D8018D9135
:102B90008D018111F5CFE5E1F2E08491882341F0C8
:102BA0009091C00095FFFCCF8093C6003196F5CF81
:102BB0008091C00085FFFCCF8AE08093C600CE01E3
:102BC00001960E94227D0C94592A90929A09809233
:102BD000990986010F5F1F4F7ECF8BE999E0909393
:102BE0009A098093990985016091990970919A09D0
:102BF0006115710511F06C5F7F4F18A21BA222E0D6
:102C0000A801CE0180960E9443718823F1F0CE0185
:102C100080960E94FB638823C1F06CA57DA58EA5DC
:102C20009FA541E00E94D845882379F0E8A9B0E249
:102C3000EB9FF0011124ED52F94F309731F085EE02
:102C400080831BA20E949845F82ECE0180960E9498
:102C50005033FF2041F1E7E0F2E08491882341F016
:102C60009091C00095FFFCCF8093C6003196F5CFC0
:102C7000F8018191882339F09091C00095FFFCCF35
:102C80008093C600F6CF8091C00085FFFCCF8AE01C
:102C90008093C6001092CE0B1092CF0B1092D00BE7
:102CA0001092D10B2CC0EFEEF1E08491882341F01B
:102CB0009091C00095FFFCCF8093C6003196F5CF70
:102CC000F8018191882339F09091C00095FFFCCFE5
:102CD0008093C600F6CFEDEEF1E08491882341F0B9
:102CE0009091C00095FFFCCF8093C6003196F5CF40
:102CF0008091C00085FFFCCF8AE08093C600CE01A2
:102D000001960E94227D0C94592A80914D098111CF
:102D10000E94F9960091CE041091CF040C5F1F4FD2
:102D20006AE270E0C8010E9420C27C0161E270E0AA
:102D3000C8010E9420C2009719F08C010F5F1F4F3D
:102D4000E114F10411F0F701108280E50E94532E86
:102D5000F82E8091CE049091CF040817190708F43B
:102D6000F12C80914E09882311F40C94592A41E0EA
:102D70004F2561E0C8010E946C6683E50E94532ED6
:102D80008823B9F08091CE049091CF0480179107E9
:102D900080F40E946E2EAB01BC014093CE0B509389
:102DA000CF0B6093D00B7093D10B89E19BE00E9415
:102DB000A36A80914E09882319F081E080934D0920
:102DC000F1100C94592A0E94338F6093C5067093BA
:102DD000C6068093C7069093C8060C94592A809122
:102DE000CE049091CF046AE270E005960E9420C262
:102DF0008C01892BD9F02091C3063091C40640E69E
:102E0000429FC001439F900D11246EE470E08D5BE2
:102E10009A4F0E9420C260E270E00E9420C2019698
:102E20009093CF048093CE04D8011C928091CE045D
:102E30009091CF0421E020934C0941E060E0059699
:102E40000E946C660C94592A0E94338F6093CA04C6
:102E50007093CB048093CC049093CD040091C5066D
:102E60001091C6062091C7063091C806601B710BF1
:102E7000820B930B28EE33E040E050E00E94E4BD6B
:102E8000CA01B9012CE330E040E050E00E94E4BD0B
:102E90007F936F933F932F9380E295E09F938F935F
:102EA0008E010F5F1F4F1F930F930E94A4BAE7ED8F
:102EB000FCE094910FB6F894DEBF0FBECDBFE7EDF6
:102EC000FCE0992349F08091C00085FFFCCF9093EE
:102ED000C60031969491F5CFF8018191882339F09D
:102EE0009091C00095FFFCCF8093C600F6CF8091F3
:102EF000C00085FFFCCF8AE08093C600C8010E9415
:102F0000C5938091080C882311F40C94592A1092CF
:102F1000080C0091EF0B10E0000F111F055F134F1D
:102F2000D8016D917C91072E000C880B990B0E94A3
:102F3000D9BA20912E0230912F0240913002509147
:102F400031020E944BC0181614F00C94592AF80153
:102F5000118210820C94592A83E50E94532E8823F3
:102F600011F40C94592A0E94792E0E9464BFF62E07
:102F7000E72E862F9E2D8C0180E50E94532E8823FC
:102F800031F00F3F110509F010F40C947E2A0DE08A
:102F900010E0E5E7F2E0819191918017910711F43B
:102FA0000C94592A22E0ED3AF207A9F709301105ED
:102FB00039F48F2D9E2D90930A0C8093090C04C038
:102FC00017FF02C00C94592A61E0802F0E94F78DF0
:102FD0006F2D802F0E94DC496F2D7E2D802F0E9447
:102FE000338E0C94592A88E690E00E942A7D811144
:102FF0000C94592A83E50E94532E882311F40C94D3
:10300000592A1091220C0E94792E212F30E0220F94
:10301000331F8901055F134F0E9464BFD8016D9370
:103020007C930C94592A0E94F27D83E50E94532ED2
:10303000882311F40C94592A0E94792E0E9464BFAF
:103040007093EA0B6093E90B0C94592A89E690E09F
:103050000E942A7D81110C94592AEAE1F5E08491BD
:10306000882341F09091C00095FFFCCF8093C6006B
:103070003196F5CFE091220CB4E0EB9FF0011124E2
:10308000E753F94F608171818281938141E00E9411
:10309000D355E7E1F5E08491882341F09091C00099
:1030A00095FFFCCF8093C6003196F5CFE091220CBE
:1030B000F0E0EE0FFF1FE55FF34F60817181072E97
:1030C000000C880B990B0E94D9BA41E00E94D3559D
:1030D000E3E1F5E08491882341F09091C00095FFF1
:1030E000FCCF8093C6003196F5CF60915E1270914F
:1030F0005F12809160129091611241E00E94D3555D
:10310000E0E1F5E08491882341F09091C00095FFC3
:10311000FCCF8093C6003196F5CF6091E90B70919A
:10312000EA0B072E000C880B990B0E94D9BA41E0DC
:103130000E94D355EDE0F5E08491882341F0909111
:10314000C00095FFFCCF8093C6003196F5CF60E0BC
:1031500070E0CB010E94C155EBE0F5E0849188233B
:1031600041F09091C00095FFFCCF8093C60031964E
:10317000F5CF6091C9067091CA068091CB069091F7
:10318000CC0641E00E94D355E8E0F5E08491882325
:1031900041F09091C00095FFFCCF8093C60031961E
:1031A000F5CF60910B0C70910C0C072E000C880B66
:1031B000990B0E94D9BA41E00E94D355E4E0F5E0B2
:1031C0008491882341F09091C00095FFFCCF8093BB
:1031D000C6003196F5CFE091220CF0E0EB59FD4EA0
:1031E000608170E080E090E00E94C155EFEFF4E074
:1031F0008491882341F09091C00095FFFCCF80938B
:10320000C6003196F5CF6091641270E080E090E0E6
:103210000E94C1558091C00085FFFCCF8AE0809359
:10322000C6000C941E2E8DE690E00E942A7D81112E
:103230000C94592A84EF94E00E94B2931092080CE7
:1032400083E50E94532E8823A1F01091220C0E9446
:10325000792E212F30E0220F331F8901055F134F94
:103260000E9464BFF8017183608381E08093000253
:1032700017C082E50E94532E882391F01091220CF2
:103280000E94792E212F30E0220F331F8901055F24
:10329000134F0E9464BFD8016D937C93109200027B
:1032A00083E50E94532E882351F00E94792E60936B
:1032B0002E0270932F02809330029093310282E4A9
:1032C0000E94532E882351F00E94792E60932A0287
:1032D00070932B0280932C0290932D0286E40E941F
:1032E000532E882369F00E94792E609326027093F2
:1032F0002702809328029093290281E08093080C92
:103300000E94338F2B013C010091220C10E0F80148
:10331000EE0FFF1FE55FF34F60817181072E000CF8
:10332000880B990B0E94D9BA000F111F000F111FB3
:10333000F801E753F94F11E0208131814281538137
:103340000E944BC018160CF010E01093F704109276
:10335000CF0688248A94982C5401B9EE2B2EB4E021
:103360003B2E18EEC12E13E0D12EE12CF12C8091D2
:10337000CF0681110C94A82BBFEF8B169B06AB06D2
:10338000BB0611F40C94842AB7FE02C00C94A82B3F
:103390000E94338F681979096031774210F40C94D8
:1033A000842A0C94A82B8EEC94E00E94B29383E5BF
:1033B0000E94532E882361F00E94792E0E9464BFE0
:1033C0007093EA0B6093E90B81E0809300020FC0D9
:1033D00082E50E94532E882351F00E94792E0E948C
:1033E00064BF7093EA0B6093E90B109200020E9495
:1033F000338F4B015C011092CF066091E90B709105
:10340000EA0B072E000C880B990B0E94D9BA11E029
:1034100020915E1230915F124091601250916112C2
:103420000E944BC018160CF010E01093F7040BEC40
:1034300014E097ECE92E94E0F92E23ECC22E24E060
:10344000D22E3AE0732E8091F7046091E90B7091CF
:10345000EA0B882309F485C08091CF06811181C0D1
:10346000072E000C880B990B0E94D9BA20915E128E
:1034700030915F1240916012509161120E944BC0D6
:1034800018160CF085C00E94338FDC01CB0188191F
:103490009909AA09BB09893E9340A105B10508F421
:1034A00058C0E091EF0B24E0E29FF0011124E753B4
:1034B000F94F6081718182819381F8012491EBEC55
:1034C000F4E0222349F03091C00035FFFCCF209377
:1034D000C60031962491F5CF42E00E94D355F70102
:1034E0008491E7ECF4E0882349F09091C00095FFC7
:1034F000FCCF8093C60031968491F5CF6091EF0B9D
:1035000070E080E090E00E94C155F6018491E3EC08
:10351000F4E0882349F09091C00095FFFCCF8093A0
:10352000C60031968491F5CF60915E1270915F1262
:10353000809160129091611241E00E94D355809178
:10354000C00085FFFCCF7092C6000E94338F4B01F4
:103550005C010E94E69480E00E943F7E0E94D2932C
:1035600072CF072E000C880B990B0E94D9BA2091BC
:103570005E1230915F1240916012509161120E9470
:10358000D3BA87FF05C080910002882309F47BCF5E
:1035900089EB94E00E94B2930E94338F6093EB0B0F
:1035A0007093EC0B8093ED0B9093EE0B0C94592AD7
:1035B00083E50E94532E882319F10E94792E20E082
:1035C00030E0A9010E94D3BA87FD0FC00E94792E76
:1035D00020E030E04FE753E40E944BC0181644F05F
:1035E0000E94792E0E9464BF05C060E070E002C0B6
:1035F0006FEF70E070930A0C6093090C0C94592AD9
:103600008FEF90E090930A0C8093090C0C94592A48
:1036100010920A0C1092090C0C94592A269A2E9892
:1036200081E080931A028BEA94E00E94B2930E9498
:10363000D2930C94592A1092150C0C94592A81E0BB
:103640008093150C0C94592A83E50E94532E8823ED
:10365000A1F00E94792E20E030E04AE754E40E9475
:1036600009B70E9469BF609332027093330280935E
:103670003402909335020C94592A88E50E94532E07
:1036800081110C94C12B89E50E94532E81110C9459
:10369000C12B8AE50E94532E81110C94C12B85E425
:1036A0000E94532E81110C94C12B0E94F996129AFC
:1036B0000E9406970C94592A83E50E94532E882372
:1036C00011F40C94592A0E94792E20E030E04AE748
:1036D00054E40E9409B70E9469BF6093160C70936E
:1036E000170C8093180C9093190C0C94592A11E123
:1036F000812E13E0912E02E219E087E6A82E8CE0DD
:10370000B82E2FEA3CE03CAF2BAF312CD4018D9189
:103710004D010E94532E882309F45EC0B3E03B1292
:1037200054C00E94792E2B013C0120E030E040EA99
:1037300051E40E94D3BA87FF41C0A3019201F8016E
:1037400060817181828193810E94FCBE6B017C014A
:103750009B01AC016091770C7091780C8091790C91
:1037600090917A0C0E9409B76093770C7093780C53
:103770008093790C90937A0CA7019601D5016D91F5
:103780007D918D919C910E9409B7F50160837183B1
:1037900082839383ABADBCAD6D917D918D919C91F6
:1037A0000E94D7BAA70196010E9409B70E9469BF7B
:1037B000EBADFCAD6083718382839383D8014D921E
:1037C0005D926D927C92139707C00E94792EF8014A
:1037D000608371838283938333940C5F1F4FF4E083
:1037E000AF0EB11C2BAD3CAD2C5F3F4F3CAF2BAFB0
:1037F00034E033128BCF0C94592A9091C00095FF7E
:10380000FCCF8093C600319684918111F6CF0C9441
:10381000592A0091CE041091CF040B5F1F4F6AE22A
:1038200070E0C8010E9420C2009711F0DC011C92D8
:10383000C8010E94C5930C94592AEAECF3E08491E4
:10384000882341F09091C00095FFFCCF8093C60083
:103850003196F5CF6091EE087091EF088091F008F5
:103860009091F10842E00E94D355E6ECF3E0849198
:10387000882341F09091C00095FFFCCF8093C60053
:103880003196F5CF6091F2087091F3088091F408B9
:103890009091F50842E00E94D355E2ECF3E0849168
:1038A000882341F09091C00095FFFCCF8093C60023
:1038B0003196F5CF6091F6087091F7088091F8087D
:1038C0009091F90842E00E94D355EEEBF3E0849129
:1038D000882341F09091C00095FFFCCF8093C600F3
:1038E0003196F5CF6091FA087091FB088091FC0841
:1038F0009091FD0842E00E94D355E3EBF3E0849100
:10390000882341F09091C00095FFFCCF8093C600C2
:103910003196F5CF2FB7F8946091DE087091DF08EB
:103920008091E0089091E1082FBF0E94D9BA2091C0
:1039300022093091230940912409509125090E94C0
:10394000FCBE42E00E94D355EFEAF3E08491882365
:1039500041F09091C00095FFFCCF8093C600319656
:10396000F5CF2FB7F8946091E2087091E308809149
:10397000E4089091E5082FBF0E94D9BA209126094A
:103980003091270940912809509129090E94FCBED5
:1039900042E00E94D355EBEAF3E08491882341F0A2
:1039A0009091C00095FFFCCF8093C6003196F5CF73
:1039B0002FB7F8946091E6087091E7088091E808C5
:1039C0009091E9082FBF0E94D9BA20912A0930911D
:1039D0002B0940912C0950912D090E94FCBE42E018
:1039E0000E94D3558091C00085FFFCCF8AE0809370
:1039F000C6000C94592A109213020C94592A81E0A3
:103A0000809313020C94592A9091C00095FFFCCF2B
:103A10008093C60081918111F7CF8091C00085FF0E
:103A2000FCCF8AE08093C600E3EAF3E08491882328
:103A300041F09091C00095FFFCCF8093C600319675
:103A4000F5CF659903C0E5E6F3E009C0EAE6F3E0E7
:103A500006C09091C00095FFFCCF8093C600819175
:103A60008111F7CF8091C00085FFFCCF8AE0809361
:103A7000C600EBE9F3E08491882341F09091C00007
:103A800095FFFCCF8093C6003196F5CF649B03C0B1
:103A9000E5E6F3E009C0EAE6F3E006C09091C00075
:103AA00095FFFCCF8093C60081918111F7CF809163
:103AB000C00085FFFCCF8AE08093C600E3E9F3E015
:103AC0008491882341F09091C00095FFFCCF8093B2
:103AD000C6003196F5CF8091030181FD03C0E5E674
:103AE000F3E009C0EAE6F3E006C09091C00095FF5C
:103AF000FCCF8093C60081918111F7CF8091C000E7
:103B000085FFFCCF8AE08093C600EBE8F3E0849168
:103B1000882341F09091C00095FFFCCF8093C600B0
:103B20003196F5CF8091030180FF03C0E5E6F3E015
:103B300009C0EAE6F3E006C09091C00095FFFCCF13
:103B40008093C60081918111F7CF8091C00085FFDD
:103B5000FCCF8AE08093C600E3E8F3E084918823F9
:103B600041F09091C00095FFFCCF8093C600319644
:103B7000F5CF4B9903C0E5E6F3E009C0EAE6F3E0D0
:103B800006C09091C00095FFFCCF8093C600819144
:103B90008111F7CF8091C00085FFFCCF8AE0809330
:103BA000C600EBE7F3E08491882341F09091C000D8
:103BB00095FFFCCF8093C6003196F5CF4A9B03C09A
:103BC000E5E6F3E009C0EAE6F3E006C09091C00044
:103BD00095FFFCCF8093C60081918111F7CF809132
:103BE000C00085FFFCCF8AE08093C6000C94592A60
:103BF0008091EF0B8093220C84E50E94532E882342
:103C000019F10E94792E0E9469BF6093220C6623ED
:103C1000D9F0E7EDFCE08491882341F09091C00059
:103C200095FFFCCF8093C6003196F5CFEFE8F3E027
:103C30008191882311F40C94592A9091C00095FF2A
:103C4000FCCF8093C600F4CF84E40E94532E8823D7
:103C500011F40C94592A0E94792E20E030E0A90139
:103C60000E94D3BA811103C010925C1231C000913E
:103C7000220C10E00E94792E000F111F000F111F5F
:103C8000F801E159FD4F6083718382839383C09073
:103C90006F02D0907002E0907102F090720220E00A
:103CA00030E0A901C701B6010E94D3BA811105C055
:103CB000C12CD12CA0E4EA2EFE2CC0926F02D0922F
:103CC0007002E0927102F092720281E080935C12C5
:103CD0000E94F07A0C94592AEFE4EE2EECE0FE2ECE
:103CE00001E113E0F4E0DF2ED00EF80181918F01A5
:103CF0000E94532E882351F00E94792E0E9469BFA2
:103D0000D7016D937D938D939C931397B4E0EB0E45
:103D1000F11CD012EACF0E949E940C94592A67E6B7
:103D2000E62E6CE0F62E01E113E074E0D72ED00E03
:103D3000F80181918F010E94532E882341F00E9447
:103D4000792ED7016D937D938D939C931397B4E057
:103D5000EB0EF11CD012ECCF0C94592A83E50E9493
:103D6000532E882351F00E94792E6093830C709318
:103D7000840C8093850C9093860C84E50E94532ECE
:103D8000882311F40C94592A0E94792E60934B0CCD
:103D900070934C0C80934D0C90934E0C0C94592ABC
:103DA00083E50E94532E882351F00E94792E609360
:103DB000630C7093640C8093650C9093660C84E59F
:103DC0000E94532E882351F00E94792E60935F0C3D
:103DD0007093600C8093610C9093620C82E40E945B
:103DE000532E882361F00E94792E0E9469BF609350
:103DF0000F0570931005809311059093120588E5C7
:103E00000E94532E882351F00E94792E60937F0CDC
:103E10007093800C8093810C9093820C8AE50E94B1
:103E2000532E882351F00E94792E60937B0C70935F
:103E30007C0C80937D0C90937E0C85E40E94532E25
:103E4000882311F40C94592A0E94792E6093770CE0
:103E50007093780C8093790C90937A0C0C94592A77
:103E6000B4E0EB0EF11CD01611F40C94592AF801B1
:103E700081918F010E94532E882391F30E94792E05
:103E8000D7016D937D938D939C931397E9CF83E531
:103E90000E94532E882311F40C94592A0E94792EE3
:103EA0000E9464BF70931902609318020C94592AFF
:103EB00083E50E94532E882311F40C94592A0E9402
:103EC000792E0E9464BF6B017C0184E50E94532E11
:103ED000882391F08DED90E00E942A7D81110C9451
:103EE000592AE091220CF0E0EE0FFF1FEC5EFD4F2F
:103EF000D182C0820C94592AD0921702C092160225
:103F00000C94592A80E50E94532E882311F40C94B6
:103F1000592A0E94792E0E9464BFD62EE62EF72ED3
:103F200083E50E94532E882331F00E94792E0E944F
:103F300064BF8B0102C00FEF1FEFC801019603970A
:103F400010F00C94592AE5E7F2E0819191918E15D9
:103F50009F0511F40C94592A22E0ED3AF207A9F7D3
:103F6000F7FE02C00C94592A0E94F996FD2C60E0DD
:103F70008D2D0E94F78D0F3F3FEF130731F0013079
:103F8000110571F401E010E00DC08D2D0E94B349C0
:103F900031E020E0892B09F030E0032F122F02C01E
:103FA00000E010E08F2D0E94B3498017910711F4B3
:103FB0000C94592A0E94E69480E00E943F7E0E9461
:103FC000D293F0CF83E50E94532E882331F00E94D4
:103FD000792E0E9464BF6B0103C02EE6C22ED12C45
:103FE00080E50E94532E882329F00E94792E0E949A
:103FF00064BF02C068EE73E04B01770FAA08BB08EC
:104000001C141D040CF088C280910A02853221F034
:104010008F3F09F079C204C0E0E2FAE01491E7C0F2
:1040200085E280930A02E0E2FAE014911F3F09F46E
:104030006BC2123009F472C04CF5112309F451C05F
:10404000113009F0D4C0109280001092810080914C
:1040500081008860809381008091810081608093DD
:104060008100E3E7F9E0E491F0E0EE0FFF1FE65E88
:10407000F64F859194919093DB048093DA04E9EBF9
:10408000F9E0E491E093D90411E0B3C0143009F4ED
:104090008BC00CF466C0153009F0A9C01092200145
:1040A00010922101809121018860809321018091EB
:1040B0002101816080932101E3E7F9E0E491F0E0E0
:1040C000EE0FFF1FE65EF64F859194919093D20418
:1040D0008093D104E9EBF9E0E491E093D00415E09A
:1040E00088C014BC15BC84B5826084BD85B5816070
:1040F00085BDE3E7F9E0E491F0E0EE0FFF1FE65E37
:10410000F64F859194919093DE048093DD04E9EB62
:10411000F9E0E491E093DC0410E06BC01092B00091
:104120001092B1008091B00082608093B0008091C5
:10413000B10081608093B100E3E7F9E0E491F0E041
:10414000EE0FFF1FE65EF64F859194919093170551
:1041500080931605E9EBF9E0E491E093180512E08D
:1041600048C0109290001092910080919100886058
:104170008093910080919100816080939100E3E7AA
:10418000F9E0E491F0E0EE0FFF1FE65EF64F859157
:1041900094919093D8048093D704E9EBF9E0E491EB
:1041A000E093D60413E025C01092A0001092A10065
:1041B0008091A10088608093A1008091A10081601E
:1041C0008093A100E3E7F9E0E491F0E0EE0FFF1F38
:1041D000E65EF64F859194919093D5048093D40434
:1041E000E9EBF9E0E491E093D30414E002C017FD99
:1041F0008BC161E085E20E94F78D0D2C000CEE086A
:10420000FF08812F8D7F09F0AEC060E072E18AE780
:1042100090E0A70196010E94B6C129013A01BA01B6
:10422000A90141505109610971094F3F51056105CB
:10423000710509F00CF448C060E472E48FE090E08E
:10424000A70196010E94B6C1BA01A90141505109C6
:10425000610971091230F1F44F3F51056105710593
:1042600009F014F40C941B2E60E970ED83E090E0EB
:10427000A70196010E94B6C1BA01A9014150510996
:10428000610971094F3F51056105710509F0BCF5E0
:1042900083E062C04F3F510561057105B9F0B4F08C
:1042A00068E478EE81E090E0A70196010E94B6C133
:1042B000BA01A9014150510961097109112311F491
:1042C0000C94F92D0C94F02D81E001C082E01111C5
:1042D00043C010C0D301C2012AE0B595A7959795B8
:1042E00087952A95D1F7AC01BD014150510961096B
:1042F000710985E095B5987F892B85BD8DC068E4EF
:1043000078EE81E090E0A70196010E94B6C1BA0163
:10431000A90141505109610971094F3F51056105DA
:10432000710509F014F40C94C02D64E274EF80E080
:1043300090E0A70196010E94B6C1BA01A9014150BF
:104340005109610971094F3F51056105710519F066
:1043500014F00C94C32D85E09091B100987F892BC7
:104360008093B10049C060E072E18AE790E0A70164
:1043700096010E94B6C1BA01A901415051096109D3
:1043800071094115510581E06807710584F068E401
:1043900078EE81E090E0A70196010E94B6C1BA01D3
:1043A000A901415051096109710983E001C081E00F
:1043B000113039F490918100987F892B809381008E
:1043C0003DC0133039F490919100987F892B8093F0
:1043D00091005CC0143039F49091A100987F892B32
:1043E0008093A10068C0153039F490912101987F25
:1043F000892B8093210174C01230A9F12CF4112370
:1044000059F01130D9F080C0143009F454C0F4F1DF
:10441000153009F465C078C047BD8FEF9FEFDC0110
:104420008093EF049093F004A093F104B093F2040E
:1044300080916E00826080936E0066C05093890008
:10444000409388008FEF9FEFDC018093EB04909303
:10445000EC04A093ED04B093EE0480916F008260B1
:1044600080936F0051C04093B3008FEF9FEFDC014A
:104470008093190590931A05A0931B05B0931C0512
:10448000809170008260809370003EC050939900CC
:10449000409398008FEF9FEFDC018093E7049093A7
:1044A000E804A093E904B093EA048091710082606B
:1044B0008093710029C05093A9004093A8008FEF0A
:1044C0009FEFDC018093E3049093E404A093E50460
:1044D000B093E6048091720082608093720014C0F1
:1044E00050932901409328018FEF9FEFDC018093C7
:1044F000DF049093E004A093E104B093E204809180
:104500007300826080937300C501B4010E94FB8E2A
:1045100085E20E940C4ACDC7C501B4010E94FB8E02
:10452000C8C780E50E94532E882351F00E94792E3F
:1045300060932202709323028093240290932502B9
:1045400089E40E94532E882381F00E94792E2CEA60
:1045500035EC47E25EE30E9409B760930D02709369
:104560000E0280930F029093100284E40E94532E57
:10457000882381F00E94792E2CEA35EC47E25EE335
:104580000E94FCBE60936702709368028093690288
:1045900090936A0283E40E94532E882351F00E9474
:1045A000792E60931E0270931F02809320029093D5
:1045B00021020E94C096E6EAF3E08191882339F057
:1045C0009091C00095FFFCCF8093C600F6CFE9EA3A
:1045D000F3E08191882339F09091C00095FFFCCFE2
:1045E0008093C600F6CF60912202709123028091E1
:1045F00024029091250242E00E94D355EDEAF3E0B7
:104600008191882339F09091C00095FFFCCF809371
:10461000C600F6CF2CEA35EC47E25EE360910D026E
:1046200070910E0280910F02909110020E94FCBEC8
:1046300042E00E94D355E1EBF3E08191882339F009
:104640009091C00095FFFCCF8093C600F6CF2CEA76
:1046500035EC47E25EE360916702709168028091F9
:10466000690290916A020E9409B742E00E94D35504
:10467000E5EBF3E08191882339F09091C00095FF3C
:10468000FCCF8093C600F6CF60911E0270911F028E
:10469000809120029091210242E00E94D3558091A6
:1046A000C00085FFFCCF8AE08093C60002C783E587
:1046B0000E94532E882319F00E94792E03C060E0D7
:1046C00070E0CB01609306027093070280930802AA
:1046D00090930902EEC685E40E94532E882341F090
:1046E0000E94792E0E9464BF8B0177FD12C002C028
:1046F00000E010E027961FAE279728961FAE289758
:1047000096E129969FAF2997A3E42A96AFAF2A97FF
:104710000EC027961FAE279728961FAE2897BCE895
:104720002996BFAF2997E2E42A96EFAF2A9783E54F
:104730000E94532E882371F00E94792E27966FAF26
:10474000279728967FAF289729968FAF29972A9683
:104750009FAF2A9783E40E94532E882349F00E943A
:10476000792E0E9464BFA2967FAF6EAFA29706C05B
:1047700025E030E0A2963FAF2EAFA2970E94338F84
:1047800026966CAF7DAF8EAF9FAF269710161106A1
:104790001CF0E9EBF3E01AC0ECECF3E08191882324
:1047A00039F09091C00095FFFCCF8093C600F6CF02
:1047B0008091C00085FFFCCF8AE08093C60079C657
:1047C0009091C00095FFFCCF8093C600819181112C
:1047D000F7CF8091C00085FFFCCF8AE08093C600B0
:1047E0000E94A0A58FE70115110509F44DC0809323
:1047F000641226964CAC5DAC6EAC7FAC269762968C
:104800004CAE5DAE6EAE7FAE6297A6964CAE5DAE20
:104810006EAE7FAEA6972B961FAE2B9720E46996BF
:104820002FAF69973CE16A963FAF6A9746E46B9673
:104830004FAF6B9765961FAE659766961FAE6697EE
:1048400067961FAE679768961FAE68976FE7462E0C
:10485000512C612C712C22964CAE5DAE6EAE7FAEAB
:104860002297A0961CAE1DAE1EAE1FAEA09721E0F3
:104870006C962FAF6C9764961FAE1EAE64971BAEFE
:10488000212C312C1DAE05C080936512B2CF0E9441
:10489000D29380916312882309F459C10E9449A8D8
:1048A0000115110559F030915E123BAF20905F1257
:1048B00030906012409161124DAF0AC05091C9060C
:1048C0005BAF2090CA063090CB068091CC068DAFAE
:1048D0002BAD322D432D5DAD65966FAD6597669618
:1048E0007FAD669767968FAD679768969FAD68971F
:1048F0000E944BC0181674F09BAD65969FAF6597EC
:1049000066962FAE669767963FAE6797ADAD689691
:10491000AFAF68972BAD322D432D5DAD2B966FADAC
:104920002B9769967FAD69976A968FAD6A976B965C
:104930009FAD6B970E94D3BA87FD0EC0BBAD2B967F
:10494000BFAF2B9769962FAE69976A963FAE6A976D
:10495000EDAD6B96EFAF6B976C96FFAD6C97FF2349
:1049600009F473C027962FAD279728963FAD289757
:1049700029964FAD29972A965FAD2A976BAD722D78
:10498000832D9DAD0E944BC018160CF0E0C00E9414
:10499000338FDC01CB0126962CAD3DAD4EAD5FAD26
:1049A0002697821B930BA40BB50B89389341A10565
:1049B000B10508F4CCC0D301C20122962CAD3DADA7
:1049C0004EAD5FAD2297821B930BA40BB50BB59533
:1049D000A795979587950115110519F08093641295
:1049E00002C0809365120E94338F62966CAF7DAFD8
:1049F0008EAF9FAF6297DC01CB0126962CAD3DAD0B
:104A00004EAD5FAD2697821B930BA40BB50BA09602
:104A10008CAF9DAFAEAFBFAFA09727963FAD2797A6
:104A200065963FAF659728964FAD289766964FAF2E
:104A3000669729965FAD299767965FAF67972A9625
:104A40008FAD2A9768968FAF689727962FAD2797D7
:104A500028963FAD289729964FAD29972A965FADA6
:104A60002A976BAD722D832D9DAD0E94D3BA87FD21
:104A700002C00C94BB2D0E94338FDC01CB016296E7
:104A80002CAD3DAD4EAD5FAD6297821B930BA40B79
:104A9000B50B89389341A105B10510F40C94BB2DD9
:104AA0000E94338F26966CAF7DAF8EAF9FAF269757
:104AB000DC01CB0162962CAD3DAD4EAD5FAD629792
:104AC000821B930BA40BB50B64964EAD5FAD649740
:104AD000141615060CF47AC622968CAD9DADAEADBB
:104AE000BFAD2297840D951DA61DB71DB595A79541
:104AF000979587950115110511F40C94B72D8093A6
:104B0000641264962EAD3FAD64972F5F3F4F64965D
:104B10003FAF2EAF649727963FAD27972B963FAFB9
:104B20002B9728964FAD289769964FAF699729968E
:104B30005FAD29976A965FAF6A972A968FAD2A97DD
:104B40006B968FAF6B9791E06C969FAF6C9720E060
:104B500030E040EA51E427966FAD279728967FAD65
:104B6000289729968FAD29972A969FAD2A970E945C
:104B700020BE9B01AC016BAD722D832D9DAD0E94BB
:104B80004BC01816ACF4E4EBF2E08491882341F0BA
:104B90009091C00095FFFCCF8093C6003196F5CF71
:104BA0008091C00085FFFCCF8AE08093C60081C45D
:104BB0000E94338FDC01CB01A6962CAD3DAD4EADEE
:104BC0005FADA697821B930BA40BB50B813D97405D
:104BD000A105B10508F44CC00115110581F0E09064
:104BE0006412F12CEEEAF2E084918823C1F09091F6
:104BF000C00095FFFCCF8093C6003196F5CFE090C2
:104C00006512F12CE8EAF2E08491882341F090915A
:104C1000C00095FFFCCF8093C6003196F5CF42E0EF
:104C20006BAD722D832D9DAD0E94D355E4EAF2E069
:104C30008491882341F09091C00095FFFCCF809330
:104C4000C6003196F5CFB701FF0C880B990B0E9477
:104C5000C1558091C00085FFFCCF8AE08093C600DB
:104C60000E94338FA6966CAF7DAF8EAF9FAFA69795
:104C70000E94338F6B017C010E94338F62968CAC53
:104C80009DACAEACBFAC629726962CAD3DAD4EADA3
:104C90005FAD2697820E931EA41EB51EC818D908B4
:104CA000EA08FB08DC01CB018C0D9D1DAE1DBF1D6C
:104CB00081389F44A241B105A8F0E7E8F2E0849171
:104CC000882341F09091C00095FFFCCF8093C600EF
:104CD0003196F5CF8091C00085FFFCCF8AE08093AC
:104CE000C600E7C364964EAD5FAD6497A2968EADE5
:104CF0009FADA297841795070CF0C9CDEBE2F2E0C7
:104D00008491882341F09091C00095FFFCCF80935F
:104D1000C6003196F5CF8091C00085FFFCCF8AE0B8
:104D20008093C600C6C30E94F996C3C30E948F3306
:104D3000C0C30E94EE34BDC38AE5B5D7882309F409
:104D400092C0D7D76B017C0120E030E040E751EC06
:104D50000E944BC087FD3FC020E030E040EA50ECAD
:104D6000C701B6010E94D3BA1816ACF1F7FAF09455
:104D7000F7F8F094C092F304D092F404E092F504B2
:104D8000F092F604E7EDFCE08491882341F09091E5
:104D9000C00095FFFCCF8093C6003196F5CFEFE6BB
:104DA000F3E08491882341F09091C00095FFFCCFFF
:104DB0008093C6003196F5CF8091C00085FFFCCF6F
:104DC0008AE08093C6008091C00085FFFCCF8AE016
:104DD0008093C6006EC3E7EDFCE08491882341F028
:104DE0009091C00095FFFCCF8093C6003196F5CF1F
:104DF000E6E6F3E08491882341F09091C00095FFAE
:104E0000FCCF8093C6003196F5CFEEE5F3E08491B8
:104E1000882341F09091C00095FFFCCF8093C6009D
:104E20003196F5CF61EF7FEF8FEF9FEF0E94C15575
:104E3000E6E5F3E08491882341F09091C00095FF6E
:104E4000FCCF8093C6003196F5CF6BEF7FEF8FEFED
:104E50009FEF0E94C1558091C00085FFFCCF8AE082
:104E60008093C60026C3E7EDFCE08491882341F0DF
:104E70009091C00095FFFCCF8093C6003196F5CF8E
:104E8000EAE4F3E08491882341F09091C00095FF1B
:104E9000FCCF8093C6003196F5CF8091C00085FF8E
:104EA000FCCF8AE08093C6008091F3049091F404D3
:104EB000A091F504B091F604BC01CD01905842E0F8
:104EC0000E94D3558091C00085FFFCCF8AE080937B
:104ED000C600EFC2C090EE08D090EF08E090F00856
:104EE000F090F108C8A2D9A2EAA2FBA20091F208B0
:104EF0001091F3082091F4083091F5080CA31DA33C
:104F00002EA33FA34091F6085091F7086091F8084E
:104F10007091F90848A759A76AA77BA78091FA085A
:104F20009091FB08A091FC08B091FD088CA79DA76B
:104F3000AEA7BFA7C982DA82EB82FC820D831E83F3
:104F40002F83388749875A876B877C878D879E8711
:104F5000AF87B88B85E4A7D6882351F0CAD69B01CA
:104F6000AC016CA57DA58EA59FA50E9420BE0AC0A0
:104F700020E030E040E050E46CA57DA58EA59FA523
:104F80000E941FBE6CA77DA78EA79FA720E030E0E0
:104F900040E752E460914E0270914F0280915002BE
:104FA000909151020E94FCBEFFEECF2EFBE0DF2E5F
:104FB0007B018C019E01245D3F4FAE01485D5F4F38
:104FC000BE016C5D7F4FCE0180960E9485398AE5D7
:104FD0006AD6882321F08DD69B01AC0104C020E065
:104FE00030E040E251E468A579A58AA59BA50E941E
:104FF00020BE68A779A78AA79BA720E030E040E7FA
:1050000052E460914E0270914F0280915002909153
:1050100051020E94FCBEEFEECE2EEBE0DE2E7B01B5
:105020008C019E01245D3F4FAE01485D5F4FBE0184
:105030006C5D7F4FCE0180960E94853988E533D61E
:10504000882371F056D69B01AC0168A179A18AA191
:105050009BA10E9420BE68A379A38AA39BA308C03A
:1050600080E090E0A0E4B0E488A399A3AAA3BBA346
:1050700089E519D6882331F03CD66CA37DA38EA395
:105080009FA308C080E090E0A0E4B0E48CA39DA3BF
:10509000AEA3BFA320E030E040E752E460914E02AF
:1050A00070914F0280915002909151020E94FCBE7B
:1050B0005FEEC52E5BE0D52E7B018C019E01245D49
:1050C0003F4FAE01485D5F4FBE016C5D7F4FCE012B
:1050D00080960E9485398CE4E6D5882351F009D664
:1050E0009B01AC016CA57DA58EA59FA50E9420BE4D
:1050F0000AC020E030E048EC52E46CA57DA58EA506
:105100009FA50E941FBE6CA77DA78EA79FA720E02A
:1051100030E040E752E460914E0270914F0280917E
:105120005002909151020E94FCBE4FEEC42E4BE003
:10513000D42E7B018C019E01245D3F4FAE01485D62
:105140005F4FBE016C5D7F4FCE0180960E94853916
:105150000E94F996129A64E670E080E090E00E9466
:10516000FB8E8AE393E00E94BF9310E08091880C4D
:1051700082FD1AC01F5F0E94E69481E00E943F7E7C
:105180000E94D2931111F2CF389A409A63E070E0F6
:1051900080E090E00E94FB8E409863E070E080E049
:1051A00090E00E94FB8EE2CF8CE47DD5882351F005
:1051B000A0D59B01AC016CA57DA58EA59FA50E94E5
:1051C0001FBE0AC020E030E048EC52E46CA57DA58B
:1051D0008EA59FA50E9420BE6CA77DA78EA79FA726
:1051E0008CA59DA5AEA5BFA58093FA089093FB085A
:1051F000A093FC08B093FD080E94946920E030E081
:1052000040E752E460914E0270914F02809150024B
:10521000909151020E94FCBE3FEEC32E3BE0D32E84
:105220007B018C019E01245D3F4FAE01485D5F4FC5
:10523000BE016C5D7F4FCE0180960E94853920E0D3
:1052400030E040E752E460914E0270914F0280914D
:105250005002909151020E94FCBE7B018C019E0184
:10526000245D3F4FAE01485D5F4FBE016B5F7F4FD6
:10527000CE0101960E94853920E030E040E752E4FB
:1052800060914E0270914F028091500290915102B4
:105290000E94FCBE7B018C019E01245D3F4FAE014C
:1052A000475F5F4FBE016B5F7F4FCE0101960E944B
:1052B000853920E030E040E752E460914E02709181
:1052C0004F0280915002909151020E94FCBE7B01DE
:1052D0008C019E01235F3F4FAE01475F5F4FBE01D0
:1052E0006B5F7F4FCE0101960E948539E2C010921C
:1052F00062121092870C80911A0C90911B0CA09155
:105300001C0CB0911D0C80931E0C90931F0CA0934D
:10531000200CB093210C0E940185CBC084E5C3D43E
:10532000882309F482C0E5D40E9469BF6093220CEF
:105330006623A9F1E7EDFCE08491882341F0909188
:10534000C00095FFFCCF8093C6003196F5CFE6EF05
:10535000F3E08191882339F09091C00095FFFCCF54
:105360008093C600F6CF8091220C9091C00095FFEB
:10537000FCCF8093C600E8EFF3E08191882339F0F9
:105380009091C00095FFFCCF8093C600F6CF80912E
:10539000C00085FFFCCF8AE08093C6008AC086E407
:1053A00082D48823D1F0A5D46B017C0160930D0CCD
:1053B00070930E0C80930F0C9093100C20E030E053
:1053C000A9010E944BC0181644F4C0924E02D0921C
:1053D0004F02E0925002F0925102E7EDFCE084911E
:1053E000882341F09091C00095FFFCCF8093C600C8
:1053F0003196F5CFE9E0F4E08191882339F090917E
:10540000C00095FFFCCF8093C600F6CF6091EF0BF4
:1054100070E080E090E00E94C1558091C00085FF5F
:10542000FCCF8AE08093C60044C0E7EDFCE08491A5
:10543000882341F09091C00095FFFCCF8093C60077
:105440003196F5CFE7E2F3E08491882341F0909123
:10545000C00095FFFCCF8093C6003196F5CF8091B8
:10546000C3069091C40620E6289FF001299FF00D05
:105470001124ED5BFA4F8191882339F09091C0009F
:1054800095FFFCCF8093C600F6CFE5E2F3E0849170
:10549000882341F09091C00095FFFCCF8093C60017
:1054A0003196F5CF8091C00085FFFCCF8AE08093D4
:1054B000C6000E94D984C2C380E090E00E94A77B0E
:1054C0000C94CA1081E090E00E94A77B0C94D51048
:1054D00082E090E00E94A77B0C941E11FFD3AB01E9
:1054E000BC014093CE0B5093CF0B6093D00B7093C5
:1054F000D10B89E19BE00E94A36ADBCFFAD30E9423
:1055000064BF8B010C94C9170E94338FDC01CB015F
:1055100084199509A609B709893E9340A105B105EB
:1055200008F476C0E1EFF4E08491882341F0909193
:10553000C00095FFFCCF8093C6003196F5CFE09177
:10554000220C24E0E29FF0011124E753F94F60811F
:1055500071818281938141E00E94D355EDEEF4E0A8
:105560008491882341F09091C00095FFFCCF8093F7
:10557000C6003196F5CF6091220C70E080E090E09B
:105580000E94C155F1018491E9EEF4E0882349F0CD
:105590009091C00095FFFCCF8093C6003196849116
:1055A000F5CFB7FE03C0EDE8F3E024C00E94338FCF
:1055B00095018401005F184D2F4F3F4F280139019D
:1055C000461A570A680A790AC301B201A70196016F
:1055D0000E94E4BDCA01B9014AE00E944C55809185
:1055E000C00085FFFCCF0DC09091C00095FFFCCF9F
:1055F0008093C60081918111F7CF8091C00085FF13
:10560000FCCF8AE08093C6000E94338F2B013C01BF
:105610000E94E69480E00E943F7E0E94D2932FEF8A
:1056200082169206A206B20609F056C09091F704BF
:105630008091220C992341F190E08C01000F111F01
:10564000000F111F0753194F880F991FFC01E55FC9
:10565000F34F60817181072E000C880B990B0E941B
:10566000D9BA20E030E040E85FE30E941FBE9B0112
:10567000AC01D8016D917D918D919C910E944BC0A0
:1056800087FF60C00C94B71990E08C01000F111FC8
:10569000000F111F0753194F880F991FFC01E55F79
:1056A000F34F60817181072E000C880B990B0E94CB
:1056B000D9BA20E030E040E85FE30E9420BE9B01C1
:1056C000AC01F80160817181828193810E94D3BA1B
:1056D0001816C4F50C94B719B7FE02C00C94B7198C
:1056E0008091220C90E08C01000F111F000F111F00
:1056F0000753194F880F991FFC01E55FF34F608135
:105700007181072E000C880B990B0E94D9BA9B015E
:10571000AC01D8016D917D918D919C910E941FBE2D
:105720000E9464BF97FF07C0909580957095619522
:105730007F4F8F4F9F4F643071058105910514F4A1
:105740000C94B7190E94338F4B015C010C94B7196C
:105750008BED94E00E94B2930E94338F6093C50654
:105760007093C6068093C7069093C8060E94338F35
:105770006093EB0B7093EC0B8093ED0B9093EE0B1F
:1057800098CE0E94F99688E58ED2882319F05F9A08
:1057900010922B0589E587D2882319F08A9A1092F6
:1057A0002C058AE580D2882351F09FB7F894809128
:1057B00008018160809308019FBF10922D0585E448
:1057C00072D2882309F475CE129A73CEA0968CAC4F
:1057D0009DACAEACBFACA097880E991EAA1EBB1E96
:1057E000A0962CAD3DAD4EAD5FADA097281B390BFB
:1057F0004A0B5B0BCA01B90122962CAD3DAD4EADF3
:105800005FAD22970E94D5BDA50194010E94B6C14B
:10581000D301C201820F931FA41FB51F84319105CC
:10582000A105B1050CF12C013D018C3E9105A105AE
:10583000B1052CF04BEE442E512C612C712C40E81C
:105840004416510461047104FCF08EEF90E0A0E076
:10585000B0E084199509A609B70922968CAF9DAFCF
:10586000AEAFBFAF229716C034E1432E512C612C4E
:10587000712C24E130E040E050E022962CAF3DAFA7
:105880004EAF5FAF229706C022964CAE5DAE6EAEB5
:105890007FAE2297EDE1F3E08491882341F090916F
:1058A000C00095FFFCCF8093C6003196F5CFC301B1
:1058B000B2010E94C155E8E1F3E08491882341F0F0
:1058C0009091C00095FFFCCF8093C6003196F5CF34
:1058D00022966CAD7DAD8EAD9FAD22970E94C155D5
:1058E000E1E1F3E08491882341F09091C00095FFBD
:1058F000FCCF8093C6003196F5CF42E02B966FAD7A
:105900002B9769967FAD69976A968FAD6A976B966C
:105910009FAD6B970E94D355EAE0F3E08491882312
:1059200041F09091C00095FFFCCF8093C600319666
:10593000F5CF42E065966FAD659766967FAD669749
:1059400067968FAD679768969FAD68970E94D3550D
:105950008091C00085FFFCCF8AE08093C6006496EA
:105960002EAD3FAD6497233031050CF4B5C82296B7
:105970006CAD7DAD8EAD9FAD22970E94D9BA20E06F
:1059800030E040E850E40E9409B76B017C012B969F
:105990002FAD2B9769963FAD69976A964FAD6A9781
:1059A0006B965FAD6B9765966FAD659766967FADAD
:1059B000669767968FAD679768969FAD68970E94C8
:1059C0001FBE20ED3FE049E450E40E9409B720E00B
:1059D00030E040E05FE30E9409B79B01AC01C701E2
:1059E000B6010E94FCBE6B017C01C501B4010E949E
:1059F000D9BA20E030E04AE754E40E94FCBE4B01F3
:105A00005C01E4E0F3E08491882341F09091C000D0
:105A100095FFFCCF8093C6003196F5CF42E0C701D9
:105A2000B6010E94D355EEEFF2E08491882341F055
:105A30009091C00095FFFCCF8093C6003196F5CFC2
:105A400042E0C501B4010E94D3558091C00085FF9A
:105A5000FCCF8AE08093C6002AE939E949E15FE397
:105A6000C701B6010E9409B76B017C019B01AC0123
:105A70000E9420BEA50194010E94FCBE2E966CAF30
:105A80007DAF8EAF9FAF2E97A5019401C701B601E0
:105A90000E9409B720E030E040E05EE30E9409B7D1
:105AA0004B015C01E0EFF2E08491882341F090919A
:105AB000C00095FFFCCF8093C6003196F5CF809152
:105AC000C00085FFFCCF8AE08093C600EAEEF2E0DA
:105AD0008491882341F09091C00095FFFCCF809382
