:100000000C94F50E0C94260F0C94260F0C94260FCE
:100010000C94260F0C94260F0C94260F0C94260F8C
:100020000C94260F0C94260F0C94260F0C94260F7C
:100030000C94260F0C94CE380C94260F0C94260F9B
:100040000C94260F0C94C46A0C94260F0C94260F63
:100050000C94260F0C94260F0C94265E0C94C985E4
:100060000C94260F0C94A7330C94260F0C94260F97
:100070000C94260F0C94260F0C94260F0C94260F2C
:100080000C94260F0C94260F0C94260F0C94260F1C
:100090000C94260F0C94260F0C94260F0C94260F0C
:1000A0000C94260F0C94260F0C94260F0C94260FFC
:1000B0000C94260F0C94260F0C94260F0C94260FEC
:1000C0000C94260F0C94260F0C94260F0C94260FDC
:1000D0000C94260F0C94260F0C94260F0C94260FCC
:1000E0000C94260F825E915EAD5EBC5ED65EE55ED0
:1000F000FF5E035F055F095F115F468449843884B2
:100100003C84428480844D84518457845B845F8422
:10011000658469846D848084738477847B84E584BA
:10012000EA84EF84F98403857C850D8515851D851A
:10013000278531853B854A8554857C855E85688524
:100140007285084AD73B3BCE016E84BCBFFDC12FF0
:100150003D6C74319ABD56833DDA3D00C77F11BEB8
:10016000D9E4BB4C3E916BAAAABE000000803F05BB
:10017000A84CCDB2D44EB93836A9020C50B99186EC
:1001800088083CA6AAAA2ABE000000803F004E4173
:100190004E494E495459494E46CDCCCC3D0AD72301
:1001A0003C17B7D13877CC2B329595E6241FB14F49
:1001B0000A000020410000C84200401C4620BCBE8E
:1001C0004CCA1B0E5AAEC59D742F0053442070724A
:1001D000696E74696E67206279746520004E6F7471
:1001E000205344207072696E74696E67002E00445B
:1001F000656C6574696F6E206661696C65642C203E
:1002000046696C653A200046696C652064656C65DA
:100210007465643A002E006F70656E206661696CCB
:1002200065642C2046696C653A20005049442041A1
:1002300075746F74756E652066696E697368656440
:10024000212050757420746865206C617374204B94
:10025000702C204B6920616E64204B6420636F6EAC
:100260007374616E74732066726F6D2061626F7655
:100270006520696E746F20436F6E66696775726181
:1002800074696F6E2E6800504944204175746F7414
:10029000756E65206661696C6564212074696D65A1
:1002A0006F75740020403A006F6B20543A006F6BFA
:1002B00020423A00504944204175746F74756E6550
:1002C000206661696C6564212054656D706572619A
:1002D0007475726520746F6F206869676800204BC1
:1002E000643A2000204B693A2000204B703A2000ED
:1002F00020436C617373696320504944200020548B
:10030000753A2000204B753A2000206D61783A2024
:1003100000206D696E3A200020643A200020626956
:1003200061733A20002200556E6B6E6F776E20630A
:100330006F6D6D616E643A2022004368616E67657F
:100340002066696C616D656E74005A204F66667335
:100350006574203A20007A5F6D61783A20007A5FF8
:100360006D696E3A20005A204F6666736574005AB4
:10037000204F6666736574206F6B007A5F6D6178DD
:100380003A20007A5F6D696E3A2000795F6D61787E
:100390003A2000795F6D696E3A2000785F6D617870
:1003A0003A2000785F6D696E3A2000205A3A0020AA
:1003B000593A0020436F756E7420583A200020454A
:1003C0003A00205A3A0020593A00583A0046495219
:1003D0004D574152455F4E414D453A4D61726C69F2
:1003E0006E2056313B20537072696E7465722F67B0
:1003F00072626C206D617368757020666F72206721
:10040000656E36204649524D574152455F55524C14
:100410003A68747470733A2F2F6769746875622E26
:10042000636F6D2F4D61726C696E4669726D776195
:1004300072652F4D61726C696E2050524F544F435C
:100440004F4C5F56455253494F4E3A312E30204D56
:10045000414348494E455F545950453A4D656E6495
:10046000656C2045585452554445525F434F554E94
:10047000543A3120555549443A30303030303030DC
:10048000302D303030302D303030302D3030303075
:100490002D3030303030303030303030300A004D98
:1004A000656E64656C204F66662E004D656E6465F2
:1004B0006C2072656164792E0042656420646F6E01
:1004C000652E0020423A0020453A00543A00426529
:1004D000642048656174696E672E004865617469BF
:1004E0006E6720646F6E652E0020573A0020453AF3
:1004F00000543A0048656174696E672E2E2E002004
:1005000042403A0020403A00202F003A0020540098
:10051000202F0020423A00202F006F6B20543A0019
:100520002569206D696E2C2025692073656300455F
:100530006E642066696C65206C697374004265673F
:10054000696E2066696C65206C697374004E6F205B
:100550006D6F76652E004D656E64656C2072656109
:1005600064792E00526573756D696E6720707269CB
:100570006E74005761697420666F722075736572BE
:100580002E2E2E00536C6565702E2E2E00204400FA
:100590002049002020204D33303120500050494464
:1005A0002073657474696E67733A00205A0020598D
:1005B0000020204D323036205800486F6D65206F86
:1005C000666673657420286D6D293A002045002009
:1005D0005A0020580020420020540020204D323084
:1005E00035205300416476616E63656420766172E4
:1005F0006961626C65733A20533D4D696E20666592
:1006000065647261746520286D6D2F73292C2054E8
:100610003D4D696E2074726176656C206665656417
:100620007261746520286D6D2F73292C20423D6DF9
:10063000696E696D756D207365676D656E74207484
:10064000696D6520286D73292C20583D6D6178698E
:100650006D756D205859206A65726B20286D6D2F5D
:1006600073292C20205A3D6D6178696D756D205A73
:10067000206A65726B20286D6D2F73292C20204510
:100680003D6D6178696D756D2045206A65726B20DE
:10069000286D6D2F73290020540020204D323034F6
:1006A000205300416363656C65726174696F6E3AD3
:1006B00020533D616363656C65726174696F6E2C74
:1006C00020543D7265747261637420616363656C6C
:1006D00065726174696F6E00204500205A002059D0
:1006E0000020204D3230312058004D6178696D7501
:1006F0006D20416363656C65726174696F6E20285B
:100700006D6D2F7332293A00204500205A00205980
:100710000020204D3230332058004D6178696D75CE
:100720006D2066656564726174657320286D6D2F38
:1007300073293A00204500205A0020590020204DFE
:1007400039322058005374657073207065722075BB
:100750006E69743A0048617264636F646564204432
:10076000656661756C742053657474696E67732077
:100770004C6F61646564002200656E717565696E19
:10078000672022004D383420582059205A20450037
:10079000256920686F757273202569206D696E75F3
:1007A00074657300446F6E65207072696E74696E53
:1007B000672066696C650053544F505045442E20A5
:1007C000005072696E7465722073746F7070656426
:1007D0002064756520746F206572726F72732E20AD
:1007E00046697820746865206572726F7220616E48
:1007F0006420757365204D39393920746F20726516
:1008000073746172742E202854656D706572617402
:100810007572652069732072657365742E20536547
:1008200074206974206166746572207265737461E6
:100830007274696E6729004E6F204C696E65204E98
:10084000756D626572207769746820636865636B93
:1008500073756D2C204C617374204C696E653A2061
:10086000004E6F20436865636B73756D2077697404
:1008700068206C696E65206E756D6265722C204C07
:10088000617374204C696E653A2000636865636B20
:1008900073756D206D69736D617463682C204C6194
:1008A0007374204C696E653A20004C696E65204E69
:1008B000756D626572206973206E6F74204C617370
:1008C00074204C696E65204E756D6265722B312CFB
:1008D000204C617374204C696E653A20004D3131B3
:1008E000300000002200250028002B002E003100DF
:1008F000340002010000050108010B010000200086
:100900002300260029002C002F00320000010000E7
:100910000301060109010505050507050808080882
:10092000020202020A0A0808040404040101010187
:100930000101010103030303030303030407070782
:100940000C0C0C0C0C0C0C0C020202020606060627
:10095000060606060B0B0B0B0B0B0B0B01021020F4
:1009600020080810204010204080020102010804E5
:100970000201010204081020408080402010080479
:1009800002018004020180402010080402010804D2
:100990000201010204081020408001020408102016
:1009A000408000000A0B02090C0D0E080703040129
:1009B0000000000000000000000000000000000037
:1009C0000000000000000000000000000000121104
:1009D0001000000000000000000000000000000007
:1009E0000000000000000000022020506C616E6ECC
:1009F000657242756666657242797465733A200065
:100A00002046726565204D656D6F72793A20004A07
:100A1000756C203330203230313900436F6D70698E
:100A20006C65643A2000286E6F6E652C20646566E4
:100A300061756C7420636F6E6669672900207C2085
:100A4000417574686F723A20004A756C203330200B
:100A5000323031392032333A34363A353300204C93
:100A600061737420557064617465643A2000312E9E
:100A7000302E30004D61726C696E0020536F6674C9
:100A800077617265205265736574002057617463E5
:100A900068646F67205265736574002042726F77D7
:100AA0006E206F75742052657365740020457874EC
:100AB00065726E616C20526573657400506F776566
:100AC000725570007374617274006572726F722077
:100AD00077726974696E6720746F2066696C65004F
:100AE000656E6473746F7073206869743A205A007D
:100AF000205A3A00656E6473746F7073206869746D
:100B00003A20590020593A00656E6473746F70730F
:100B1000206869743A20580020583A00656E647362
:100B2000746F7073206869743A2000446F6E65209A
:100B3000736176696E672066696C652E006F6B0065
:100B40004D32390020746F6F206C6F6E67206578AE
:100B500074727573696F6E2070726576656E7465F8
:100B6000640020636F6C6420657874727573696FBC
:100B70006E2070726576656E746564004D32340067
:100B80004D3233202573006175746F25692E67001F
:100B900053442063617264206F6B006F70656E5206
:100BA0006F6F74206661696C656400766F6C756D3B
:100BB000652E696E6974206661696C6564004572B2
:100BC000726F723A00534420696E697420666169DD
:100BD0006C006563686F3A004D3834205820592006
:100BE0005A2045004E6F20534420636172640050C8
:100BF00072696E742066726F6D2053440053746F77
:100C000070207072696E7400526573756D65207026
:100C100072696E74005061757365207072696E74CC
:100C200000436F6E74726F6C005072657061726514
:100C30000054756E6500496E666F2073637265655A
:100C40006E004D363030004368616E67652066691E
:100C50006C616D656E7400466C6F77203200466C77
:100C60006F77203200466C6F77203100466C6F77CB
:100C7000203100466C6F77203000466C6F77203053
:100C800000466C6F7700466C6F770046616E20738C
:100C9000706565640046616E20737065656400422E
:100CA000656400426564004E6F7A7A6C6533004E6D
:100CB0006F7A7A6C6533004E6F7A7A6C6532004ECB
:100CC0006F7A7A6C6532004E6F7A7A6C65004E6F7F
:100CD0007A7A6C650053706565640053706565646D
:100CE000004D61696E005072656865617420504CFA
:100CF0004120426564005072656865617420504C03
:100D00004120416C6C005072656865617420504CE4
:100D1000412033005072656865617420504C412059
:100D200032005072656865617420504C412031007A
:100D3000507265706172650070012C01900127018D
:100D4000B0012201C0011D01F001180110021301C0
:100D500030020E016002090190020401C002FF008E
:100D60000003FA004003F5008003F000D003EB001D
:100D70002004E6007004E100E004DC004005D70038
:100D8000C005D2004006CD00D006C8008007C300D1
:100D90003008BE00F008B900C009B400B00AAF00C6
:100DA000B00BAA00D00CA500000EA000500F9B00B5
:100DB000C01096005012910000148C00C0158700DE
:100DC000B0178200B0197D00D01B7800001E7300A0
:100DD00040206E0090226900F024640040275F00EC
:100DE00090295A00E02B5500102E500020304B0067
:100DF00010324600E033410090353C001037370098
:100E000070383200A0392D00B03A2800A03B2300F2
:100E1000603C1E00103D1900903D1400103E0F0074
:100E2000703E0A00C03E0500003F00004572723A65
:100E3000204D415854454D50003A20457874727504
:100E4000646572207377697463686564206F666691
:100E50002E204D415854454D502074726967676586
:100E60007265642021004572723A204D494E544506
:100E70004D50003A2045787472756465722073771E
:100E8000697463686564206F66662E204D494E5410
:100E9000454D502074726967676572656420210052
:100EA0004572723A204D415854454D5020424544B8
:100EB0000054656D70657261747572652068656156
:100EC000746564206265642073776974636865641F
:100ED000206F66662E204D415854454D5020747247
:100EE00069676765726564202121002D2D3A2D2DDB
:100EF000002D2D2D00534400205900012000012019
:100F00000057726974696E6720746F2066696C653A
:100F10003A20002E006F70656E206661696C656412
:100F20002C2046696C653A20002E006F70656E209B
:100F30006661696C65642C2046696C653A200046E0
:100F4000696C652073656C65637465640020536922
:100F50007A653A200046696C65206F70656E65643D
:100F60003A20002E006F70656E206661696C6564C2
:100F70002C2046696C653A20004E6F7720667265BA
:100F800073682066696C653A20004E6F7720646F45
:100F9000696E672066696C653A20002220706F7365
:100FA000002220706172656E743A220053554252DD
:100FB0004F5554494E452043414C4C207461726753
:100FC00065743A2200747279696E6720746F2063C9
:100FD000616C6C207375622D67636F646520666950
:100FE0006C6573207769746820746F6F206D616E13
:100FF00079206C6576656C732E204D4158206C65A8
:1010000076656C2069733A0024F4D43050C38E2086
:10101000C2A24017828B7011127A910D816CD90A8D
:10102000A861E108C7586607615143061E4B5D057C
:10103000C145A7041A411104093D980371393103D0
:101040004036DB0265339102D4305402802E1D02FB
:10105000632CEE01752AC501B028A001102781017B
:101060008F2564012B244B01E0223401AC211F01A8
:101070008D200D01801FFC00841EED00971DDF00F8
:10108000B81CD200E61BC600201BBC00641AB200CC
:10109000B219A8000A19A0006A189900D117910086
:1010A00040178B00B516840031167E00B315790009
:1010B0003A157300C7146F0058146A00EE136600E7
:1010C0008813630025135E00C7125B006C12570083
:1010D00015125400C111510070114F0021114B0025
:1010E000D61049008D1047004610440002104200FF
:1010F000C00F4000800F3E00420F3C00060F3B0037
:10110000CB0E3800930E37005C0E3500270E3400EE
:10111000F30D3200C10D3100900D3000600D2E0036
:10112000320D2D00050D2C00D90C2B00AE0C290022
:10113000850C29005C0C2700350C27000E0C2600BE
:10114000E80B2400C40B2400A00B23007D0B23001C
:101150005A0B2100390B2100180B2000F80A1F0040
:10116000D90A1E00BB0A1E009D0A1D00800A1D0030
:10117000630A1C00470A1B002C0A1B00110A1A00F4
:10118000F7091A00DD091900C4091900AB09190093
:10119000920917007B091800630917004C09160013
:1011A00036091600200916000A091500F508150071
:1011B000E0081400CC081400B8081400A4081400B7
:1011C000900813007D0812006B08130058081200E5
:1011D00046081200340811002308110012081100FB
:1011E00001081100F0071000E0071000D007100000
:1011F000C0071000B0070F00A107100091070E00F4
:1012000083070F0074070F0065070E0057070E00D5
:1012100049070E003B070D002E070E0020070D00AA
:1012200013070D0006070D00F9060C00ED060D0072
:10123000E0060C00D4060C00C8060C00BC060C002E
:10124000B0060C00A4060B0099060C008D060B00DE
:1012500082060B0077060B006C060B0061060A0085
:1012600057060B004C060A0042060A0038060A0020
:101270002E060A0024060A001A060A0010060900B3
:1012800007060A00FD050900F4050900EB05090041
:10129000E2050900D9050900D0050900C7050900C4
:1012A000BE050900B5050800AD050800A505090043
:1012B0009C050800940508008C05080084050800BA
:1012C0007C050800740508006C050700650508002A
:1012D0005D050700560508004E0507004705070095
:1012E0004005080038050700310507002A050700FA
:1012F000230507001C050600160507000F0507005B
:101300000805060002050700FB040600F5040700B7
:10131000EE040600E8040600E2040700DB04060011
:10132000D5040600CF040600C9040600C304060065
:10133000BD040600B7040600B1040500AC040600B5
:10134000A6040600A00405009B0406009504050001
:10135000900406008A040500850405008004060048
:101360007A04050075040500700405006B0405008F
:1013700066040500610405005C04050057040500CF
:10138000520405004D04050048040500430405000F
:101390003E0404003A04050035040500300404004E
:1013A0002C04050027040400230405001E04040087
:1013B0001A04040016040500110404000D040400BE
:1013C000090405000404040000040400FC030400F4
:1013D000F8030400F4030400F0030400EC03040029
:1013E000E8030400E4030400E0030400DC03040059
:1013F000D8030400D4030400D0030400CC03040089
:10140000C8030300C503030024F404D9201BC40C43
:101410005C0E9804C4095F0265077101F405F900C8
:10142000FB04B30048048700C1036900580355005A
:1014300003034500BE023A008402310053022A0031
:101440002902250004022000E4011C00C801190043
:10145000AF011700980114008401130071011000FE
:101460006101100051010E0043010D0036010B0017
:101470002B010B0020010B00150109000C010900D4
:1014800003010800FB000800F3000800EB00070060
:10149000E4000600DE000600D8000600D2000600C8
:1014A000CC000500C7000500C2000500BD00040017
:1014B000B9000400B5000400B1000400AD00040050
:1014C000A9000400A5000300A20003009F0004007F
:1014D0009B000300980003009500020093000300A6
:1014E000900003008D0002008B00030088000200C2
:1014F0008600020084000300810002007F000200D9
:101500007D0002007B0002007900020077000100EC
:1015100076000200740002007200010071000200F7
:101520006F0002006D0001006C0002006A00010003
:10153000690002006700010066000100650001000B
:10154000640002006200010061000100600001000F
:101550005F0002005D0001005C0001005B00010013
:101560005A00010059000100580001005700010015
:101570005600010055000100540001005300000016
:101580005300010052000100510001005000010011
:101590004F0001004E0000004E0001004D00010010
:1015A0004C0001004B0000004B0001004A0001000C
:1015B0004900010048000000480001004700010008
:1015C0004600000046000100450000004500010003
:1015D00044000100430000004300010042000000FD
:1015E00042000100410000004100010040000100F4
:1015F0003F0000003F0001003E0000003E000100EF
:101600003D0000003D0001003C0000003C000000E7
:101610003C0001003B0000003B0001003A000000DC
:101620003A000100390000003900010038000000D4
:1016300038000000380001003700000037000100CA
:1016400036000000360000003600010035000000C2
:1016500035000000350001003400000034000000B7
:1016600034000100330000003300000033000100AB
:1016700032000000320000003200010031000000A2
:101680003100000031000100300000003000000097
:10169000300001002F0000002F0000002F0000008C
:1016A0002F0001002E0000002E0000002E0001007F
:1016B0002D0000002D0000002D0000002D00010075
:1016C0002C0000002C0000002C0000002C00010069
:1016D0002B0000002B0000002B0000002B0001005D
:1016E0002A0000002A0000002A0000002A00010051
:1016F0002900000029000000290000002900000046
:101700002900010028000000280000002800000037
:10171000280000002800010027000000270000002A
:10172000270000002700000027000100260000001D
:101730002600000026000000260000002600010010
:101740002500000025000000250000002500000005
:1017500025000000250001002400000024000000F6
:1017600024000000240000002400010023000000E9
:1017700023000000230000002300000023000000DD
:1017800023000000230001002200000022000000CE
:1017900022000000220000002200000022000100C0
:1017A00021000000210000002100000021000000B5
:1017B00021000000210000002100010020000000A5
:1017C0002000000020000000200000002000000099
:1017D0002000000020000000200001001F00000089
:1017E0001F0000001F0000001F0000001F0000007D
:1017F0001F0000001F0001001E0000001E0000006E
:101800001E0000001E000000202D20496E76616C35
:101810006964206578747275646572206E756D6296
:1018200065722021004D6F766520302E316D6D0080
:101830004D6F766520316D6D004D6F7665203130CE
:101840006D6D005072657061726500526573746FE2
:101850007265206661696C736166650046696C61DA
:101860006D656E74004D6F74696F6E0054656D70B8
:1018700065726174757265004D61696E00507265C4
:10188000686561742041425320636F6E6600507238
:10189000656865617420504C4120636F6E6600502E
:1018A00049442D43005049442D43005049442D44A0
:1018B000005049442D44005049442D4900504944AA
:1018C0002D49005049442D50005049442D500020CE
:1018D0000220466163740020022046616374002088
:1018E00002204D6178002002204D61780020022006
:1018F0004D696E002002204D696E004F6666004FF4
:101900006E20004F6666004F6E20004175746F7444
:10191000656D700046616E20737065656400466198
:101920006E20737065656400426564004265640002
:101930004E6F7A7A6C6533004E6F7A7A6C6533003D
:101940004E6F7A7A6C6532004E6F7A7A6C6532002F
:101950004E6F7A7A6C65004E6F7A7A6C6500436FD1
:101960006E74726F6C0042656400426564004E6F75
:101970007A7A6C65004E6F7A7A6C650046616E20EB
:1019800073706565640046616E2073706565640000
:1019900054656D7065726174757265004573746528
:1019A00070732F6D6D004573746570732F6D6D00CE
:1019B0005A73746570732F6D6D005A73746570730C
:1019C0002F6D6D005973746570732F6D6D005973B1
:1019D000746570732F6D6D005873746570732F6D1F
:1019E0006D005873746570732F6D6D00412D7265B5
:1019F000747261637400412D726574726163740066
:101A0000416D6178206500416D6178206500416D10
:101A10006178207A00416D6178207A00416D6178AB
:101A2000207900416D6178207900416D61782078DE
:101A300000416D61782078005654726176206D699E
:101A40006E005654726176206D696E00566D696E37
:101A500000566D696E00566D6178206500566D61A7
:101A600078206500566D6178207A00566D61782087
:101A70007A00566D6178207900566D617820790082
:101A8000566D6178207800566D6178207800566533
:101A90002D6A65726B0056652D6A65726B00567A09
:101AA0002D6A65726B00567A2D6A65726B005678E6
:101AB000792D6A65726B005678792D6A65726B00B4
:101AC000416363656C00416363656C00436F6E74D2
:101AD000726F6C00436172642072656D6F7665642D
:101AE000004361726420696E7365727465640000FE
:101AF000002100240027002A002D003000330001BF
:101B0000010000040107010A0150726568656174F3
:101B100020414253204265640050726568656174DB
:101B20002041425320416C6C0050726568656174BD
:101B30002041425320330050726568656174204132
:101B400042532032005072656865617420414253EF
:101B500020310050726570617265004D3330302065
:101B6000533639382050323030004D333030205326
:101B70003635392050323030004D6F76652061782F
:101B80006973004D38300053776974636820706F53
:101B9000776572206F6E004D38310053776974633A
:101BA0006820706F776572206F666600436F6F6C98
:101BB000646F776E005072656865617420414253AE
:101BC000005072656865617420504C410053657423
:101BD00020686F6D65206F666673657473004732A9
:101BE00038004175746F20686F6D65004D383400A2
:101BF00044697361626C652073746570706572739B
:101C0000004D61696E00580059005A0045787472A1
:101C100075646572004578747275646572004D6F05
:101C20007665205A004D6F76652059004D6F7665B8
:101C30002058004D6F76652061786973004B494CE0
:101C40004C45442E20005072696E746572206861A4
:101C50006C7465642E206B696C6C28292063616C40
:101C60006C6564210053544F505045442E20005061
:101C700072696E7465722073746F7070656420642D
:101C8000756520746F206572726F72732E204669BD
:101C90007820746865206572726F7220616E6420AE
:101CA000757365204D39393920746F2072657374EE
:101CB0006172742E202854656D706572617475723E
:101CC000652069732072657365742E2053657420D6
:101CD00069742061667465722072657374617274D0
:101CE000696E672900000096430000964300006675
:101CF00043000034C2000000C100000000000034B6
:101D0000C2000000C1000000000000A0400000A0D0
:101D100040000000400080AC4300009A4300006691
:101D200043FFFFFF2200656E717565696E672022B3
:101D3000007C3C3E5E2B3D3F2F5B5D3B2C2A225CB2
:101D40000046696C2E204469612E20310046696C82
:101D50002E204469612E2031004F6666004F6E20B0
:101D6000004F6666004F6E20004520696E206D6D45
:101D70003300436F6E74726F6C004D3234004D321D
:101D8000332025730043616E6E6F7420656E746539
:101D900072207375626469723A2000052E2E004D20
:101DA00061696E00526573656E643A20006F6B0066
:101DB00042656400426564004E6F7A7A6C65004E3D
:101DC0006F7A7A6C650046616E2073706565640099
:101DD00046616E2073706565640054656D70657250
:101DE00061747572650056B911BA11241FBECFEF28
:101DF000D1E2DEBFCDBF00E00CBF14E0A0E0B2E056
:101E0000EAE2FBE801E00BBF02C007900D92AA3C9A
:101E1000B107D9F722E1AAECB4E001C01D92AB38BA
:101E2000B207E1F71EE0C4EFDEE000E006C0219754
:101E30000109802FFE010E94FEC4C33FD10780E04C
:101E40000807A9F70E940EB40C9484C50C940000F6
:101E50002F923F924F925F926F927F928F929F92BA
:101E6000AF92BF92CF92DF92EF92FF920F931F93A8
:101E7000CF93DF93CDB7DEB7C556D1090FB6F8942F
:101E8000DEBF0FBECDBF87E40E94A42EF82E8823AC
:101E900009F4C9C20E94CA2E0E9490C26430710522
:101EA00009F4F4C054F46230710509F4D7C00CF0A1
:101EB000E1C077FF17C00C94AA2A6A35710509F4AE
:101EC00061C234F46C31710509F427C10C94AA2A5B
:101ED0006B35710509F45AC26C35710509F45BC2A2
:101EE0000C94AA2A8091D00B81110C94AA2A0E94EA
:101EF00012B18AE592E10E9479B00E94BD8560939B
:101F00003C1270933D1280933E1290933F122091A9
:101F10005A1230915B1240915C1250915D126091A7
:101F2000E4087091E5088091E6089091E7080E9426
:101F3000FFBD811174C020915E1230915F124091FB
:101F40006012509161126091E8087091E9088091E7
:101F5000EA089091EB080E94FFBD811160C020E06B
:101F600030E040E752E460916D0270916E02809122
:101F70006F02909170020E9428C220E4C22E22E1DA
:101F8000D22E7B018C0126E632E142E652E16EE57B
:101F900072E18AE592E10E94023B80915A1290918F
:101FA0005B12A0915C12B0915D128093E408909353
:101FB000E508A093E608B093E70880915E1290913F
:101FC0005F12A0916012B09161128093E808909323
:101FD000E908A093EA08B093EB088091621290910F
:101FE0006312A0916412B09165128093EC089093F3
:101FF000ED08A093EE08B093EF08809166129091DF
:102000006712A0916812B09169128093F0089093C2
:10201000F108A093F208B093F3080C94AA2A6091F7
:10202000180270911902072E000C880B990B0E9460
:1020300005BE20916D0230916E0240916F02509169
:1020400070020E9435BA20E030E040E752E40E947E
:1020500028C220E030E048EC52E48DCF8091D00BD4
:1020600081110C94AA2A0E9497B181E00E946E9976
:102070000C94AA2A8091D00B81110C94AA2A0E9458
:1020800097B180E00E946E990C94AA2A84E895E0AA
:102090000E948C8A80E50E94A42E882339F00E9439
:1020A000CA2E0E9495C26B017C0103C0C12CD12CA9
:1020B000760183E50E94A42E882361F00E94CA2E37
:1020C00020E030E04AE754E40E9435BA0E9495C20D
:1020D0006B017C010E94A46A0E94BD85C60ED71EBA
:1020E000E81EF91E0E94BD8560933C1270933D125C
:1020F00080933E1290933F120E94BD856C157D0522
:102100008E059F0510F00C94AA2A0E94506880E06A
:102110000E94B7970E94AC8AEFCF80916D02909198
:102120006E02A0916F02B09170028093FA049093B6
:10213000FB04A093FC04B093FD04809118029091DD
:1021400019029093F9048093F80484E690E0909348
:102150001902809318020E94BD8560933C1270930F
:102160003D1280933E1290933F1211E010930B02A8
:102170008091E4089091E508A091E608B091E70805
:1021800080935A1290935B12A0935C12B0935D12ED
:102190008091E8089091E908A091EA08B091EB08D5
:1021A00080935E1290935F12A0936012B0936112BD
:1021B0008091EC089091ED08A091EE08B091EF08A5
:1021C0008093621290936312A0936412B09365128D
:1021D0008091F0089091F108A091F208B091F30875
:1021E0008093661290936712A0936812B09369125D
:1021F00010926D0210926E0210926F021092700295
:1022000088E50E94A42E882311F080E009C089E5AA
:102210000E94A42E8111F9CF8AE50E94A42E812765
:102220008093010281110C94AD2A88E50E94A42EAE
:1022300081110C94AD2A8091010281110C94B32A72
:1022400089E50E94A42E81110C94B32A88E50E948E
:10225000A42E8823D1F00E94BF2E672B682B692BF8
:10226000A1F00E94CA2E209130123091311240917B
:102270003212509133120E944CC16093E408709363
:10228000E5088093E6089093E70889E50E94A42E6C
:102290008823D1F00E94BF2E672B682B692BA1F0F9
:1022A0000E94CA2E2091341230913512409136127C
:1022B000509137120E944CC16093E8087093E9086E
:1022C0008093EA089093EB088091010281110C94AD
:1022D000B92A8AE50E94A42E81110C94B92A8AE5B4
:1022E0000E94A42E8823D1F00E94BF2E672B682B5A
:1022F000692BA1F00E94CA2E209138123091391218
:1023000040913A1250913B120E944CC16093EC08EC
:102310007093ED088093EE089093EF084CEE58E030
:1023200068EE78E084EE98E00E94804D10920B02F7
:102330008091FA049091FB04A091FC04B091FD04FB
:1023400080936D0290936E02A0936F02B09370021F
:102350008091F8049091F9049093190280931802E7
:102360000E94BD8560933C1270933D1280933E1293
:1023700090933F1210923D0510923C0510923B0540
:102380000C94AA2A109278120C94AA2A81E08093C5
:1023900078120C94AA2A85E40E94A42E811102C00E
:1023A0000E94A46AB1E6AB2EB3E0BB2E14EEE12E80
:1023B00018E0F12E00E3C02E02E1D02E10E0D5018E
:1023C0008D915D010E94A42E882311F1133051F4E8
:1023D0000E94CA2EF70160837183828393830E94D7
:1023E0008E6616C00E94CA2ED6012D913D914D9148
:1023F0005C910E944CC1F701608371838283938357
:102400004CEE58E068EE78E084EE98E00E94804D53
:102410001F5FF4E0EF0EF11C24E0C20ED11C14305B
:1024200071F60C94AA2A8DE40E94A42E882311F43C
:102430000C94DF290E94CA2E0E9490C26037710559
:1024400009F442C60CF098C06F31710509F44DC50E
:10245000ACF56631710509F454C2C4F461317105FB
:1024600009F4E5C134F46230710508F440C10C94FC
:10247000AA2A6431710509F4EBC10CF03EC2623145
:10248000710511F40C94751B0C94AA2A6A3171051C
:1024900009F470C23CF46831710509F44EC20CF4C1
:1024A00036C25EC26C31710509F4C6C20CF470C24A
:1024B0006E31710509F4F2C20C94AA2A64357105D3
:1024C00011F40C94751BACF56035710511F40C9486
:1024D0005F1B54F46032710509F468C46A327105F7
:1024E00009F48BC50C94AA2A6235710511F40C9479
:1024F0006C1B14F00C94701B0E940C5E0E94A46A6A
:10250000129A0E94B26A1092C1111092C01168EE24
:1025100073E080E090E00E948585269A2E9A1092C2
:1025200050028FE994E00E948C8A0E94AC8A0C943D
:10253000AA2A6936710509F4DAC584F46C35710587
:1025400011F40C94C81B6836710509F49DC56535F6
:10255000710511F00C94AA2A0C94AD1B6B36710511
:1025600011F40C94591B14F40C94291B6D3671054D
:1025700009F4AAC60C94AA2A6C3D710511F40C94B6
:10258000981F0CF05AC06C38710509F49FC53CF5D2
:102590006537710511F40C945A1C74F46237710597
:1025A00011F40C946E1C6337710511F00C94AA2A77
:1025B000EDECF3E00C94551C6837710511F40C94A4
:1025C0004C1D6937710511F40C94501D6737710566
:1025D00011F00C94AA2AE4E7F3E00C945B1D6B3C29
:1025E000710511F40C94E01E84F4683C710511F43B
:1025F0000C94491E693C710511F40C94BD1E6E3B90
:10260000710511F00C94AA2A1FC76D3C710511F4D5
:102610000C94211F14F40C94FF1E6E3C710511F0F4
:102620000C94AA2A40E3E42E42E1F42E01E613E0E2
:1026300053E0D52ED00E0C94881F603931E073071B
:1026400011F40C94E4261CF56C3251E0750711F47A
:102650000C94332064F46D3D710511F40C94A91FA2
:10266000623E710511F40C94D31F0C94AA2A6E32A9
:1026700091E0790711F40C94A82314F40C94E2224D
:102680006F32714011F40C94BC230C94AA2A683563
:10269000E2E07E0711F40C94BB27BCF4663F21E016
:1026A000720711F40C94E726673F31E0730711F4C9
:1026B0000C94EA26653F714011F00C94AA2A0E94FE
:1026C000E0330E9443350C94AA2A603A53E0750720
:1026D00009F4D6C3673E83E0780711F40C94C82947
:1026E0006335734011F00C94AA2A0C94ED26E09106
:1026F000CE04F091CF048F010E5F1F4F80E50E9442
:10270000A42E882371F00E94CA2E0E9495C26B01EC
:102710007C01AA24A394672B682B692B31F4A12C8C
:1027200004C0A12CC12CD12C760183E50E94A42EDB
:10273000882391F00E94CA2E20E030E04AE754E45A
:102740000E9435BA0E9495C26B017C01BB24B394F0
:10275000672B682B692B09F4B12C6AE270E0C80181
:102760000E944CC5009711F0DC011C92F801CF01CA
:1027700021912032E1F3A11007C0B11005C022233E
:1027800019F00E949F8A04C083E795E00E948C8A1A
:1027900081E08093E10B1092E00B0E94A46A0E94FA
:1027A000BD8560933C1270933D1280933E129093CE
:1027B0003F12C114D104E104F104C9F00E94BD85A7
:1027C000C60ED71EE81EF91E0E94BD856C157D053C
:1027D0008E059F05C0F48091091282FD14C00E94ED
:1027E000506880E00E94B7970E94AC8AEDCF80913C
:1027F000091282FD0CC00E94506880E00E94B797C9
:102800000E94AC8AF4CF1092E10B1092E00B809101
:102810004309882331F084E695E00E948C8A0C9469
:10282000AA2A86E595E00E948C8A0C94AA2A8DE457
:1028300095E00E948C8A5F988A989FB7F89480915F
:1028400008018E7F809308019FBF12980C94AA2ADA
:10285000EDE3F5E08491882341F09091C00095FF6D
:10286000FCCF8093C6003196F5CF8091C00085FFE4
:10287000FCCF8AE08093C6001092CA0B1092C90B5D
:1028800040E050E0BA0184E799E00E94459D8BE169
:10289000E4E7F9E0DE01159601900D928A95E1F7E3
:1028A00080917209909173099C838B838DEE92E0E5
:1028B0009A83898340E050E0BE016F5F7F4F86E5D9
:1028C00094E00E948061CE0101960E949A96EFE208
:1028D000F5E08491882341F09091C00095FFFCCFF2
:1028E0008093C6003196F5CF8091C00085FFFCCF64
:1028F0008AE08093C6000C94AA2A0E94214E0C9470
:10290000AA2A10924309109244090C94AA2A009111
:10291000CE041091CF040C5F1F4F6AE270E0C80133
:102920000E944CC5009711F0FC01108241E061E06B
:10293000C8010E9463630C94AA2A809144098823E9
:1029400019F081E0809343090E94BD856093D40B08
:102950007093D50B8093D60B9093D70B0C94AA2A27
:1029600080914309882311F40C94AA2A10924309F8
:102970000C94AA2A80914409882311F40C94AA2A61
:1029800083E50E94A42E81110C94BF2A0C94AA2ADC
:1029900080914409882309F439C0EBECF1E084917B
:1029A000882341F09091C00095FFFCCF8093C60032
:1029B0003196F5CF6091C40B7091C50B8091C60B19
:1029C0009091C70B4AE00E94614CE9ECF1E08491E0
:1029D000882341F09091C00095FFFCCF8093C60002
:1029E0003196F5CF6091BC0B7091BD0B8091BE0B01
:1029F0009091BF0B4AE00E94614C8091C00085FF1E
:102A0000FCCF8AE08093C6000C94AA2AEDEDF1E099
:102A10008491882341F09091C00095FFFCCF809372
:102A2000C6003196F5CF8091C00085FFFCCF8AE0CB
:102A30008093C6000C94AA2A8091CE049091CF0472
:102A40006AE270E004960E944CC58C01892BD9F093
:102A50002091BE063091BF0640E6429FC001439FD1
:102A6000900D11246EE470E0825C9A4F0E944CC578
:102A700060E270E00E944CC501969093CF04809371
:102A8000CE04D8011C928091CE049091CF0441E0F5
:102A900060E004960E9463630C94AA2A8091440922
:102AA000882311F40C94AA2A8FE09BE00E94029DD7
:102AB0008FE09BE00E94A29F109241091092420970
:102AC0008091CE049091CF046AE270E004960E9457
:102AD0004CC58C01892BD9F02091BE063091BF06E0
:102AE00040E6429FC001439F900D11246EE470E0C8
:102AF000825C9A4F0E944CC560E270E00E944CC517
:102B000001969093CF048093CE04F8011082009137
:102B1000CE041091CF0480914409882311F40C94C1
:102B2000AA2A5801F4E0AF0EB11C8FE09BE00E948E
:102B3000A29F109243091D8218861C821B828DEE73
:102B400092E09A83898380E799E09093900980933B
:102B50008F09D80114968C918F3209F08FC06FE2E3
:102B600070E0C5010E944CC58C010F5F1F4FAAE0A9
:102B7000EA2EFE0131964F010115110509F484C0BA
:102B80006FE270E0C8010E944CC56C01009709F427
:102B90007CC00817190708F078C03C01601A710A58
:102BA000A301B801CE0180960E9475C5E0E2F0E075
:102BB000EC0FFD1FE60DF71D10828E01005E1F4F0A
:102BC000F8018191882339F09091C00095FFFCCFE6
:102BD0008093C600F6CF8091C00085FFFCCFE092C5
:102BE000C60060918F09709190096115710511F00F
:102BF0006C5F7F4F21E0AE01405E5F4FCE010596D6
:102C00000E9437A3811132C0E7E1F2E0849188236A
:102C100071F09091C00095FFFCCF8093C600319673
:102C2000F5CF9091C00095FFFCCF8093C600D801EE
:102C30008D918D018111F5CFE5E1F2E0849188233A
:102C400041F09091C00095FFFCCF8093C600319673
:102C5000F5CF8091C00085FFFCCF8AE08093C6004D
:102C6000CE0101960E949A960C94AA2A90929009FD
:102C700080928F0986010F5F1F4F7ECF81E999E017
:102C80009093900980938F09850160918F097091CD
:102C900090096115710511F06C5F7F4F18A21BA29E
:102CA00022E0A801CE0180960E9437A38823F1F08C
:102CB000CE0180960E94EE608823C1F06CA57DA5B0
:102CC0008EA59FA541E00E945547882379F0E8A989
:102CD000B0E2EB9FF0011124E753F94F309731F048
:102CE00085EE80831BA20E941547F82ECE018096A8
:102CF0000E94A133FF2041F1E7E0F2E084918823B4
:102D000041F09091C00095FFFCCF8093C6003196B2
:102D1000F5CFF8018191882339F09091C00095FF9B
:102D2000FCCF8093C600F6CF8091C00085FFFCCF1A
:102D30008AE08093C6001092C40B1092C50B1092CB
:102D4000C60B1092C70B2CC0EFEEF1E084918823E4
:102D500041F09091C00095FFFCCF8093C600319662
:102D6000F5CFF8018191882339F09091C00095FF4B
:102D7000FCCF8093C600F6CFEDEEF1E0849188237E
:102D800041F09091C00095FFFCCF8093C600319632
:102D9000F5CF8091C00085FFFCCF8AE08093C6000C
:102DA000CE0101960E949A960C94AA2A809143091A
:102DB00081110E94A46A0091CE041091CF040C5F8F
:102DC0001F4F6AE270E0C8010E944CC57C0161E2BD
:102DD00070E0C8010E944CC5009719F08C010F5F8C
:102DE0001F4FE114F10411F0F701108280E50E94F9
:102DF000A42EF82E8091CE049091CF0408171907C5
:102E000008F4F12C80914409882311F40C94AA2A27
:102E100041E04F2561E0C8010E94636383E50E94A1
:102E2000A42E8823B9F08091CE049091CF0480170E
:102E3000910780F40E94BF2EAB01BC014093C40BEC
:102E40005093C50B6093C60B7093C70B8FE09BE04C
:102E50000E94459D80914409882319F081E0809368
:102E60004309F1100C94AA2A0E94BD856093D40BEB
:102E70007093D50B8093D60B9093D70B0C94AA2A02
:102E80008091CE049091CF046AE270E005960E9492
:102E90004CC58C01892BD9F02091BE063091BF061C
:102EA00040E6429FC001439F900D11246EE470E004
:102EB000825C9A4F0E944CC560E270E00E944CC553
:102EC00001969093CF048093CE04D8011C928091F8
:102ED000CE049091CF0421E02093420941E060E0CC
:102EE00005960E9463630C94AA2A0E94BD85609394
:102EF000CA047093CB048093CC049093CD040091CA
:102F0000D40B1091D50B2091D60B3091D70B601BB1
:102F1000710B820B930B28EE33E040E050E00E94EF
:102F200010C1CA01B9012CE330E040E050E00E943A
:102F300010C17F936F933F932F9380E295E09F930F
:102F40008F938E010F5F1F4F1F930F930E94D0BD71
:102F5000E2EDFBE094910FB6F894DEBF0FBECDBF5B
:102F6000E2EDFBE0992349F08091C00085FFFCCFA2
:102F70009093C60031969491F5CFF8018191882302
:102F800039F09091C00095FFFCCF8093C600F6CF3A
:102F90008091C00085FFFCCF8AE08093C600C80105
:102FA0000E949F8A8091BF11882311F40C94AA2A51
:102FB0001092BF110091401210E0000F111F0C532E
:102FC0001E4ED8016D917C91072E000C880B990B39
:102FD0000E9405BE209133023091340240913502A7
:102FE000509136020E9477C3181614F00C94AA2A46
:102FF000F801118210820C94AA2A83E50E94A42E63
:10300000882311F40C94AA2A0E94CA2E0E9490C20E
:10301000F62EE72E862F9E2D8C0180E50E94A42E91
:10302000882331F00F3F110509F010F40C94CF2ADA
:103030000DE010E0E5E7F2E08191919180179107B2
:1030400011F40C94AA2A22E0ED3AF207A9F709300C
:10305000110539F48F2D9E2D9093C1118093C011CD
:1030600004C017FF02C00C94AA2A61E0802F0E94BE
:1030700081846F2D802F0E945B386F2D7E2D802FD5
:103080000E94BD840C94AA2A88E690E00E94A29631
:1030900081110C94AA2A83E50E94A42E882311F49E
:1030A0000C94AA2A109159120E94CA2E212F30E0A6
:1030B000220F331F89010C531E4E0E9490C2D8016B
:1030C0006D937C930C94AA2A0E946A9783E50E94D0
:1030D000A42E882311F40C94AA2A0E94CA2E0E94BE
:1030E00090C27093C3116093C2110C94AA2A89E60E
:1030F00090E00E94A29681110C94AA2AEAE1F5E0E0
:103100008491882341F09091C00095FFFCCF80937B
:10311000C6003196F5CFE0915912B4E0EB9FF00173
:103120001124E452F44F608171818281938141E0E6
:103130000E94E84CE7E1F5E08491882341F090910A
:10314000C00095FFFCCF8093C6003196F5CFE0918B
:103150005912F0E0EE0FFF1FEC53FE4E60817181BB
:10316000072E000C880B990B0E9405BE41E00E94BF
:10317000E84CE3E1F5E08491882341F09091C000B0
:1031800095FFFCCF8093C6003196F5CF6091D80BA8
:103190007091D90B8091DA0B9091DB0B41E00E948A
:1031A000E84CE0E1F5E08491882341F09091C00083
:1031B00095FFFCCF8093C6003196F5CF6091C21188
:1031C0007091C311072E000C880B990B0E9405BE4D
:1031D00041E00E94E84CEDE0F5E08491882341F065
:1031E0009091C00095FFFCCF8093C6003196F5CF3B
:1031F00060E070E0CB010E94D64CEBE0F5E08491FA
:10320000882341F09091C00095FFFCCF8093C600C9
:103210003196F5CF6091DC0B7091DD0B8091DE0B68
:103220009091DF0B41E00E94E84CE8E0F5E08491EA
:10323000882341F09091C00095FFFCCF8093C60099
:103240003196F5CF6091C4117091C511072E000C15
:10325000880B990B0E9405BE41E00E94E84CE4E017
:10326000F5E08491882341F09091C00095FFFCCF58
:103270008093C6003196F5CFE0915912F0E0ED52FF
:10328000F44F608170E080E090E00E94D64CEFEF58
:10329000F4E08491882341F09091C00095FFFCCF29
:1032A0008093C6003196F5CF6091D20B70E080E03C
:1032B00090E00E94D64C8091C00085FFFCCF8AE050
:1032C0008093C6000C946F2E8DE690E00E94A2962B
:1032D00081110C94AA2A84EF94E00E948C8A1092A7
:1032E000BF1183E50E94A42E8823A1F010915912EA
:1032F0000E94CA2E212F30E0220F331F89010C5368
:103300001E4E0E9490C2F8017183608381E0809319
:10331000000217C082E50E94A42E882391F010912C
:1033200059120E94CA2E212F30E0220F331F89012B
:103330000C531E4E0E9490C2D8016D937C93109244
:10334000000283E50E94A42E882351F00E94CA2E19
:103350006093330270933402809335029093360267
:1033600082E40E94A42E882351F00E94CA2E60930A
:103370002F0270933002809331029093320286E4E0
:103380000E94A42E882369F00E94CA2E60932B020B
:1033900070932C0280932D0290932E0281E08093F3
:1033A000BF110E94BD852B013C010091591210E014
:1033B000F801EE0FFF1FEC53FE4E60817181072E66
:1033C000000C880B990B0E9405BE000F111F000F07
:1033D000111FF801E452F44F11E020813181428144
:1033E00053810E9477C318160CF010E01093F70475
:1033F0001092CF0B88248A94982C5401B9EE2B2E6E
:10340000B4E03B2E18EEC12E13E0D12EE12CF12CAE
:103410008091CF0B81110C94F92BBFEF8B169B067B
:10342000AB06BB0611F40C94D52AB7FE02C00C946F
:10343000F92B0E94BD85681979096031774210F433
:103440000C94D52A0C94F92B8EEC94E00E948C8A73
:1034500083E50E94A42E882361F00E94CA2E0E9458
:1034600090C27093C3116093C21181E080930002F7
:103470000FC082E50E94A42E882351F00E94CA2E1C
:103480000E9490C27093C3116093C2111092000207
:103490000E94BD854B015C011092CF0B6091C2115F
:1034A0007091C311072E000C880B990B0E9405BE6A
:1034B00011E02091D80B3091D90B4091DA0B50914B
:1034C000DB0B0E9477C318160CF010E01093F70482
:1034D0000BEC14E097ECE92E94E0F92E23ECC22ECD
:1034E00024E0D22E3AE0732E8091F7046091C2114D
:1034F0007091C311882309F485C08091CF0B81118D
:1035000081C0072E000C880B990B0E9405BE2091EC
:10351000D80B3091D90B4091DA0B5091DB0B0E9404
:1035200077C318160CF085C00E94BD85DC01CB0165
:1035300088199909AA09BB09893E9340A105B105DB
:1035400008F458C0E091401224E0E29FF0011124F9
:10355000E452F44F6081718182819381F80124915A
:10356000EBECF4E0222349F03091C00035FFFCCFB2
:103570002093C60031962491F5CF42E00E94E84C9A
:10358000F7018491E7ECF4E0882349F09091C000C2
:1035900095FFFCCF8093C60031968491F5CF609162
:1035A000401270E080E090E00E94D64CF6018491D9
:1035B000E3ECF4E0882349F09091C00095FFFCCF44
:1035C0008093C60031968491F5CF6091D80B7091AD
:1035D000D90B8091DA0B9091DB0B41E00E94E84C13
:1035E0008091C00085FFFCCF7092C6000E94BD850F
:1035F0004B015C010E94506880E00E94B7970E94D6
:10360000AC8A72CF072E000C880B990B0E9405BE66
:103610002091D80B3091D90B4091DA0B5091DB0BF4
:103620000E94FFBD87FF05C080910002882309F436
:103630007BCF89EB94E00E948C8A0E94BD856093C9
:103640003C1270933D1280933E1290933F120C9463
:10365000AA2A83E50E94A42E882319F10E94CA2E6B
:1036600020E030E0A9010E94FFBD87FD0FC00E944D
:10367000CA2E20E030E04FE753E40E9477C31816CB
:1036800044F00E94CA2E0E9490C205C060E070E023
:1036900002C06FEF70E07093C1116093C0110C9481
:1036A000AA2A8FEF90E09093C1118093C0110C94DF
:1036B000AA2A1092C1111092C0110C94AA2A269A1B
:1036C0002E9881E0809350028BEA94E00E948C8ACD
:1036D0000E94AC8A0C94AA2A10927C120C94AA2AFA
:1036E00081E080937C120C94AA2A83E50E94A42E88
:1036F0008823A1F00E94CA2E20E030E04AE754E47B
:103700000E9435BA0E9495C2609351027093520292
:1037100080935302909354020C94AA2A88E50E9445
:10372000A42E81110C94122C89E50E94A42E8111E3
:103730000C94122C8AE50E94A42E81110C94122C58
:1037400085E40E94A42E81110C94122C0E94A46A7C
:10375000129A0E94B26A0C94AA2A83E50E94A42EAF
:10376000882311F40C94AA2A0E94CA2E20E030E08B
:103770004AE754E40E9435BA0E9495C260934D1204
:1037800070934E1280934F12909350120C94AA2A69
:1037900011E6812E13E0912E08E119E088EEA82EA3
:1037A00081E1B82E2EE03CE03CAF2BAF312CD401B0
:1037B0008D914D010E94A42E882309F45EC0B3E0D0
:1037C0003B1254C00E94CA2E2B013C0120E030E085
:1037D00040EA51E40E94FFBD87FF41C0A30192016E
:1037E000F80160817181828193810E9428C26B01FE
:1037F0007C019B01AC016091F8117091F9118091ED
:10380000FA119091FB110E9435BA6093F8117093F0
:10381000F9118093FA119093FB11A7019601D5013C
:103820006D917D918D919C910E9435BAF5016083D7
:10383000718382839383ABADBCAD6D917D918D918E
:103840009C910E9403BEA70196010E9435BA0E9476
:1038500095C2EBADFCAD6083718382839383D80105
:103860004D925D926D927C92139707C00E94CA2E72
:10387000F801608371838283938333940C5F1F4FBD
:10388000F4E0AF0EB11C2BAD3CAD2C5F3F4F3CAF15
:103890002BAF34E033128BCF0C94AA2A9091C00046
:1038A00095FFFCCF8093C600319684918111F6CFAD
:1038B0000C94AA2A0091CE041091CF040B5F1F4FE5
:1038C0006AE270E0C8010E944CC5009711F0DC016B
:1038D0001C92C8010E949F8A0C94AA2AEAECF3E089
:1038E0008491882341F09091C00095FFFCCF809394
:1038F000C6003196F5CF6091E4087091E50880919B
:10390000E6089091E70842E00E94E84CE6ECF3E01C
:103910008491882341F09091C00095FFFCCF809363
:10392000C6003196F5CF6091E8087091E908809162
:10393000EA089091EB0842E00E94E84CE2ECF3E0E8
:103940008491882341F09091C00095FFFCCF809333
:10395000C6003196F5CF6091EC087091ED0880912A
:10396000EE089091EF0842E00E94E84CEEEBF3E0A5
:103970008491882341F09091C00095FFFCCF809303
:10398000C6003196F5CF6091F0087091F1088091F2
:10399000F2089091F30842E00E94E84CE3EBF3E078
:1039A0008491882341F09091C00095FFFCCF8093D3
:1039B000C6003196F5CF2FB7F8946091D408709176
:1039C000D5088091D6089091D7082FBF0E9405BED8
:1039D000209118093091190940911A0950911B0939
:1039E0000E9428C242E00E94E84CEFEAF3E0849192
:1039F000882341F09091C00095FFFCCF8093C600D2
:103A00003196F5CF2FB7F8946091D8087091D90806
:103A10008091DA089091DB082FBF0E9405BE2091AB
:103A20001C0930911D0940911E0950911F090E94E7
:103A300028C242E00E94E84CEBEAF3E0849188233C
:103A400041F09091C00095FFFCCF8093C600319665
:103A5000F5CF2FB7F8946091DC087091DD08809164
:103A6000DE089091DF082FBF0E9405BE209120093B
:103A70003091210940912209509123090E9428C2C6
:103A800042E00E94E84C8091C00085FFFCCF8AE0B4
:103A90008093C6000C94AA2A10920B020C94AA2AB6
:103AA00081E080930B020C94AA2A9091C00095FFAC
:103AB000FCCF8093C60081918111F7CF8091C00027
:103AC00085FFFCCF8AE08093C600E3EAF3E08491AF
:103AD000882341F09091C00095FFFCCF8093C600F1
:103AE0003196F5CF659B03C0E5E6F3E009C0EAE651
:103AF000F3E006C09091C00095FFFCCF8093C60014
:103B000081918111F7CF8091C00085FFFCCF8AE0C1
:103B10008093C600EBE9F3E08491882341F0909113
:103B2000C00095FFFCCF8093C6003196F5CF649B13
:103B300003C0E5E6F3E009C0EAE6F3E006C09091D1
:103B4000C00095FFFCCF8093C60081918111F7CF13
:103B50008091C00085FFFCCF8AE08093C600E3E936
:103B6000F3E08491882341F09091C00095FFFCCF51
:103B70008093C6003196F5CF8091030181FF03C089
:103B8000E5E6F3E009C0EAE6F3E006C09091C00084
:103B900095FFFCCF8093C60081918111F7CF809172
:103BA000C00085FFFCCF8AE08093C600EBE8F3E01D
:103BB0008491882341F09091C00095FFFCCF8093C1
:103BC000C6003196F5CF8091030180FF03C0E5E682
:103BD000F3E009C0EAE6F3E006C09091C00095FF6B
:103BE000FCCF8093C60081918111F7CF8091C000F6
:103BF00085FFFCCF8AE08093C600E3E8F3E0849180
:103C0000882341F09091C00095FFFCCF8093C600BF
:103C10003196F5CF4B9B03C0E5E6F3E009C0EAE639
:103C2000F3E006C09091C00095FFFCCF8093C600E2
:103C300081918111F7CF8091C00085FFFCCF8AE090
:103C40008093C600EBE7F3E08491882341F09091E4
:103C5000C00095FFFCCF8093C6003196F5CF4A9BFC
:103C600003C0E5E6F3E009C0EAE6F3E006C09091A0
:103C7000C00095FFFCCF8093C60081918111F7CFE2
:103C80008091C00085FFFCCF8AE08093C6000C9431
:103C9000AA2A809140128093591284E50E94A42E92
:103CA000882319F10E94CA2E0E9495C2609359126E
:103CB0006623D9F0E2EDFBE08491882341F09091F6
:103CC000C00095FFFCCF8093C6003196F5CFEFE89A
:103CD000F3E08191882311F40C94AA2A9091C000FA
:103CE00095FFFCCF8093C600F4CF84E40E94A42EFD
:103CF000882311F40C94AA2A0E94CA2E20E030E0F6
:103D0000A9010E94FFBD811103C01092721231C03F
:103D10000091591210E00E94CA2E000F111F000FCF
:103D2000111FF801EF58FD4F6083718382839383E5
:103D3000C0907102D0907202E0907302F090740211
:103D400020E030E0A901C701B6010E94FFBD81114A
:103D500005C0C12CD12CA0E4EA2EFE2CC092710229
:103D6000D0927202E0927302F092740281E080932A
:103D700072120E949B930C94AA2AE0EDEE2EE1E1D0
:103D8000FE2E01E613E0F4E0DF2ED00EF801819163
:103D90008F010E94A42E882351F00E94CA2E0E94F7
:103DA00095C2D7016D937D938D939C931397B4E047
:103DB000EB0EF11CD012EACF0E943F670C94AA2AA6
:103DC00068EEE62E61E1F62E01E613E074E0D72EF0
:103DD000D00EF80181918F010E94A42E882341F01A
:103DE0000E94CA2ED7016D937D938D939C93139758
:103DF000B4E0EB0EF11CD012ECCF0C94AA2A83E5B0
:103E00000E94A42E882351F00E94CA2E60930412AF
:103E100070930512809306129093071284E50E9416
:103E2000A42E882311F40C94AA2A0E94CA2E60930F
:103E3000CC117093CD118093CE119093CF110C942F
:103E4000AA2A83E50E94A42E882351F00E94CA2E3C
:103E50006093E4117093E5118093E6119093E7115C
:103E600084E50E94A42E882351F00E94CA2E6093FC
:103E7000E0117093E1118093E2119093E31182E4D9
:103E80000E94A42E882361F00E94CA2E0E9495C22F
:103E90006093C0067093C1068093C2069093C306D8
:103EA00088E50E94A42E882351F00E94CA2E6093B8
:103EB00000127093011280930212909303128AE50C
:103EC0000E94A42E882351F00E94CA2E6093FC11F8
:103ED0007093FD118093FE119093FF1185E40E9471
:103EE000A42E882311F40C94AA2A0E94CA2E60934F
:103EF000F8117093F9118093FA119093FB110C94BF
:103F0000AA2AB4E0EB0EF11CD01611F40C94AA2AE4
:103F1000F80181918F010E94A42E882391F30E94C1
:103F2000CA2ED7016D937D938D939C931397E9CF00
:103F300083E50E94A42E882311F40C94AA2A0E94DF
:103F4000CA2E0E9490C270931902609318020C94BA
:103F5000AA2A83E50E94A42E882311F40C94AA2A8D
:103F60000E94CA2E0E9490C26B017C0184E50E94CF
:103F7000A42E882391F08DED90E00E94A2968111ED
:103F80000C94AA2AE0915912F0E0EE0FFF1FEC5EAC
:103F9000FD4FD182C0820C94AA2AD0921702C092FF
:103FA00016020C94AA2A80E50E94A42E882311F4FC
:103FB0000C94AA2A0E94CA2E0E9490C2D62EE62EE7
:103FC000F72E83E50E94A42E882331F00E94CA2E8A
:103FD0000E9490C28B0102C00FEF1FEFC801019633
:103FE000039710F00C94AA2AE5E7F2E081919191F1
:103FF0008E159F0511F40C94AA2A22E0ED3AF207DF
:10400000A9F7F7FE02C00C94AA2A0E94A46AFD2C0C
:1040100060E08D2D0E9481840F3F3FEF130731F048
:104020000130110571F401E010E00DC08D2D0E94EA
:10403000323831E020E0892B09F030E0032F122FD5
:1040400002C000E010E08F2D0E94323880179107E7
:1040500011F40C94AA2A0E94506880E00E94B7973D
:104060000E94AC8AF0CF83E50E94A42E882331F011
:104070000E94CA2E0E9490C26B0103C02EE6C22E7F
:10408000D12C80E50E94A42E882329F00E94CA2EFC
:104090000E9490C202C068EE73E04B01770FAA083D
:1040A000BB081C141D040CF088C2809102028532EA
:1040B00021F08F3F09F079C204C0E8EEF9E01491D5
:1040C000E7C085E280930202E8EEF9E014911F3F19
:1040D00009F46BC2123009F472C04CF5112309F4D3
:1040E00051C0113009F0D4C01092800010928100AC
:1040F000809181008860809381008091810081603F
:1041000080938100EBE3F9E0E491F0E0EE0FFF1F14
:10411000EE51F74F859194919093DB048093DA04EC
:10412000E1E8F9E0E491E093D90411E0B3C0143080
:1041300009F48BC00CF466C0153009F0A9C01092C8
:10414000200110922101809121018860809321013A
:1041500080912101816080932101EBE3F9E0E491FA
:10416000F0E0EE0FFF1FEE51F74F85919491909381
:10417000D2048093D104E1E8F9E0E491E093D00423
:1041800015E088C014BC15BC84B5826084BD85B5BB
:10419000816085BDEBE3F9E0E491F0E0EE0FFF1FF5
:1041A000EE51F74F859194919093DE048093DD0456
:1041B000E1E8F9E0E491E093DC0410E06BC01092D8
:1041C000B0001092B1008091B00082608093B00086
:1041D0008091B10081608093B100EBE3F9E0E4915C
:1041E000F0E0EE0FFF1FEE51F74F85919491909301
:1041F000100580930F05E1E8F9E0E491E0931105E3
:1042000012E048C0109290001092910080919100AD
:1042100088608093910080919100816080939100EB
:10422000EBE3F9E0E491F0E0EE0FFF1FEE51F74F02
:10423000859194919093D8048093D704E1E8F9E0B4
:10424000E491E093D60413E025C01092A0001092F0
:10425000A1008091A10088608093A1008091A100BD
:1042600081608093A100EBE3F9E0E491F0E0EE0FD0
:10427000FF1FEE51F74F859194919093D504809351
:10428000D404E1E8F9E0E491E093D30414E002C03F
:1042900017FD8BC161E085E20E9481840D2C000C2A
:1042A000EE08FF08812F8D7F09F0AEC060E072E15B
:1042B0008AE790E0A70196010E94E2C429013A0131
:1042C000BA01A90141505109610971094F3F5105D6
:1042D0006105710509F00CF448C060E472E48FE0F8
:1042E00090E0A70196010E94E2C4BA01A9014150E1
:1042F0005109610971091230F1F44F3F510561050F
:10430000710509F014F40C946C2E60E970ED83E0F3
:1043100090E0A70196010E94E2C4BA01A9014150B0
:104320005109610971094F3F51056105710509F096
:10433000BCF583E062C04F3F510561057105B9F0DE
:10434000B4F068E478EE81E090E0A70196010E9465
:10435000E2C4BA01A901415051096109710911234F
:1043600011F40C944A2E0C94412E81E001C082E09D
:10437000111143C010C0D301C2012AE0B595A79521
:10438000979587952A95D1F7AC01BD014150510908
:104390006109710985E095B5987F892B85BD8DC030
:1043A00068E478EE81E090E0A70196010E94E2C403
:1043B000BA01A90141505109610971094F3F5105E5
:1043C0006105710509F014F40C94112E64E274EF88
:1043D00080E090E0A70196010E94E2C4BA01A90121
:1043E00041505109610971094F3F5105610571053E
:1043F00019F014F00C94142E85E09091B100987F80
:10440000892B8093B10049C060E072E18AE790E0B7
:10441000A70196010E94E2C4BA01A90141505109C5
:10442000610971094115510581E06807710584F042
:1044300068E478EE81E090E0A70196010E94E2C472
:10444000BA01A901415051096109710983E001C014
:1044500081E0113039F490918100987F892B80930D
:1044600081003DC0133039F490919100987F892BE1
:10447000809391005CC0143039F49091A100987F32
:10448000892B8093A10068C0153039F490912101E7
:10449000987F892B8093210174C01230A9F12CF4EC
:1044A000112359F01130D9F080C0143009F454C0F0
:1044B000F4F1153009F465C078C047BD8FEF9FEF68
:1044C000DC018093EF049093F004A093F104B09387
:1044D000F20480916E00826080936E0066C05093FB
:1044E0008900409388008FEF9FEFDC018093EB04FD
:1044F0009093EC04A093ED04B093EE0480916F00D0
:10450000826080936F0051C04093B3008FEF9FEFA4
:10451000DC018093120590931305A0931405B093CA
:104520001505809170008260809370003EC05093AA
:104530009900409398008FEF9FEFDC018093E70490
:104540009093E804A093E904B093EA048091710089
:1045500082608093710029C05093A9004093A80005
:104560008FEF9FEFDC018093E3049093E404A0932A
:10457000E504B093E604809172008260809372003B
:1045800014C050932901409328018FEF9FEFDC0165
:104590008093DF049093E004A093E104B093E204DD
:1045A00080917300826080937300C501B4010E9402
:1045B000858585E20E948B38CDC7C501B4010E9474
:1045C0008585C8C780E50E94A42E882351F00E94EB
:1045D000CA2E609327027093280280932902909339
:1045E0002A0289E40E94A42E882381F00E94CA2E08
:1045F0002CEA35EC47E25EE30E9435BA609305028F
:1046000070930602809307029093080284E40E944C
:10461000A42E882381F00E94CA2E2CEA35EC47E2B2
:104620005EE30E9428C260934C0270934D02809317
:104630004E0290934F0283E40E94A42E882351F0EF
:104640000E94CA2E60932302709324028093250255
:10465000909326020E946B6AE6EAF3E08191882338
:1046600039F09091C00095FFFCCF8093C600F6CF43
:10467000E9EAF3E08191882339F09091C00095FF39
:10468000FCCF8093C600F6CF60912702709128027C
:104690008091290290912A0242E00E94E84CEDEAC2
:1046A000F3E08191882339F09091C00095FFFCCF11
:1046B0008093C600F6CF2CEA35EC47E25EE36091CA
:1046C00005027091060280910702909108020E94F3
:1046D00028C242E00E94E84CE1EBF3E0819188239C
:1046E00039F09091C00095FFFCCF8093C600F6CFC3
:1046F0002CEA35EC47E25EE360914C0270914D028A
:1047000080914E0290914F020E9435BA42E00E9481
:10471000E84CE5EBF3E08191882339F09091C000FB
:1047200095FFFCCF8093C600F6CF60912302709175
:104730002402809125029091260242E00E94E84CDA
:104740008091C00085FFFCCF8AE08093C60002C73D
:1047500083E50E94A42E882319F00E94CA2E03C06C
:1047600060E070E0CB0160931002709311028093BF
:10477000120290931302EEC685E40E94A42E8823B1
:1047800041F00E94CA2E0E9490C28B0177FD12C098
:1047900002C000E010E027961FAE279728961FAEB4
:1047A000289796E129969FAF2997A3E42A96AFAF61
:1047B0002A970EC027961FAE279728961FAE2897D8
:1047C000BCE82996BFAF2997E2E42A96EFAF2A9773
:1047D00083E50E94A42E882371F00E94CA2E27969A
:1047E0006FAF279728967FAF289729968FAF299785
:1047F0002A969FAF2A9783E40E94A42E882349F02B
:104800000E94CA2E0E9490C2A2967FAF6EAFA2975E
:1048100006C025E030E0A2963FAF2EAFA2970E94DF
:10482000BD8526966CAF7DAF8EAF9FAF26971016D5
:1048300011061CF0E9EBF3E01AC0ECECF3E0819117
:10484000882339F09091C00095FFFCCF8093C6007B
:10485000F6CF8091C00085FFFCCF8AE08093C60030
:1048600079C69091C00095FFFCCF8093C6008191DE
:104870008111F7CF8091C00085FFFCCF8AE0809343
:10488000C6000E940C5E8FE70115110509F44DC0AA
:104890008093D20B26964CAC5DAC6EAC7FAC269769
:1048A00062964CAE5DAE6EAE7FAE6297A6964CAE93
:1048B0005DAE6EAE7FAEA6972B961FAE2B9720E413
:1048C00069962FAF69973CE16A963FAF6A9746E4D5
:1048D0006B964FAF6B9765961FAE659766961FAE4A
:1048E000669767961FAE679768961FAE68976FE7E3
:1048F000462E512C612C712C22964CAE5DAE6EAEC4
:104900007FAE2297A0961CAE1DAE1EAE1FAEA09726
:1049100021E06C962FAF6C9764961FAE1EAE649725
:104920001BAE212C312C1DAE05C08093D30BB2CF12
:104930000E94AC8A8091D10B882309F459C10E944E
:10494000CD600115110559F03091D80B3BAF209087
:10495000D90B3090DA0B4091DB0B4DAF0AC0509170
:10496000DC0B5BAF2090DD0B3090DE0B8091DF0B1A
:104970008DAF2BAD322D432D5DAD65966FAD659737
:1049800066967FAD669767968FAD679768969FAD81
:1049900068970E9477C3181674F09BAD65969FAF19
:1049A000659766962FAE669767963FAE6797ADADF3
:1049B0006896AFAF68972BAD322D432D5DAD2B962A
:1049C0006FAD2B9769967FAD69976A968FAD6A97A1
:1049D0006B969FAD6B970E94FFBD87FD0EC0BBAD70
:1049E0002B96BFAF2B9769962FAE69976A963FAE0D
:1049F0006A97EDAD6B96EFAF6B976C96FFAD6C97CA
:104A0000FF2309F473C027962FAD279728963FAD53
:104A1000289729964FAD29972A965FAD2A976BADB7
:104A2000722D832D9DAD0E9477C318160CF0E0C047
:104A30000E94BD85DC01CB0126962CAD3DAD4EAD6F
:104A40005FAD2697821B930BA40BB50B893893415E
:104A5000A105B10508F4CCC0D301C20122962CAD4A
:104A60003DAD4EAD5FAD2297821B930BA40BB50BF2
:104A7000B595A795979587950115110519F0809320
:104A8000D20B02C08093D30B0E94BD8562966CAF9F
:104A90007DAF8EAF9FAF6297DC01CB0126962CAD28
:104AA0003DAD4EAD5FAD2697821B930BA40BB50BAE
:104AB000A0968CAF9DAFAEAFBFAFA09727963FAD8E
:104AC000279765963FAF659728964FAD28976696CE
:104AD0004FAF669729965FAD299767965FAF679747
:104AE0002A968FAD2A9768968FAF689727962FAD35
:104AF000279728963FAD289729964FAD29972A9654
:104B00005FAD2A976BAD722D832D9DAD0E94FFBDC9
:104B100087FD02C00C940C2E0E94BD85DC01CB01E8
:104B200062962CAD3DAD4EAD5FAD6297821B930B8F
:104B3000A40BB50B89389341A105B10510F40C9471
:104B40000C2E0E94BD8526966CAF7DAF8EAF9FAFB9
:104B50002697DC01CB0162962CAD3DAD4EAD5FAD2D
:104B60006297821B930BA40BB50B64964EAD5FADA1
:104B70006497141615060CF47AC622968CAD9DAD7A
:104B8000AEADBFAD2297840D951DA61DB71DB59581
:104B9000A795979587950115110511F40C94082E8A
:104BA0008093D20B64962EAD3FAD64972F5F3F4F3D
:104BB00064963FAF2EAF649727963FAD27972B960D
:104BC0003FAF2B9728964FAD289769964FAF6997BF
:104BD00029965FAD29976A965FAF6A972A968FAD3F
:104BE0002A976B968FAF6B9791E06C969FAF6C97FF
:104BF00020E030E040EA51E427966FAD27972896F1
:104C00007FAD289729968FAD29972A969FAD2A9731
:104C10000E944CC19B01AC016BAD722D832D9DADEB
:104C20000E9477C31816ACF4E4EBF2E08491882379
:104C300041F09091C00095FFFCCF8093C600319663
:104C4000F5CF8091C00085FFFCCF8AE08093C6003D
:104C500081C40E94BD85DC01CB01A6962CAD3DAD83
:104C60004EAD5FADA697821B930BA40BB50B813D98
:104C70009740A105B10508F44CC00115110581F05C
:104C8000E090D20BF12CEEEAF2E084918823C1F09F
:104C90009091C00095FFFCCF8093C6003196F5CF70
:104CA000E090D30BF12CE8EAF2E08491882341F004
:104CB0009091C00095FFFCCF8093C6003196F5CF50
:104CC00042E06BAD722D832D9DAD0E94E84CE4EA6D
:104CD000F2E08491882341F09091C00095FFFCCFD1
:104CE0008093C6003196F5CFB701FF0C880B990B66
:104CF0000E94D64C8091C00085FFFCCF8AE0809353
:104D0000C6000E94BD85A6966CAF7DAF8EAF9FAFEB
:104D1000A6970E94BD856B017C010E94BD856296AD
:104D20008CAC9DACAEACBFAC629726962CAD3DADC5
:104D30004EAD5FAD2697820E931EA41EB51EC818F9
:104D4000D908EA08FB08DC01CB018C0D9D1DAE1DC6
:104D5000BF1D81389F44A241B105A8F0E7E8F2E009
:104D60008491882341F09091C00095FFFCCF8093FF
:104D7000C6003196F5CF8091C00085FFFCCF8AE058
:104D80008093C600E7C364964EAD5FAD6497A2966C
:104D90008EAD9FADA297841795070CF0C9CDEBE2BD
:104DA000F2E08491882341F09091C00095FFFCCF00
:104DB0008093C6003196F5CF8091C00085FFFCCF6F
:104DC0008AE08093C600C6C30E94A46AC3C30E943F
:104DD000E033C0C30E944335BDC38AE5B5D78823FD
:104DE00009F492C0D7D76B017C0120E030E040E7A6
:104DF00051EC0E9477C387FD3FC020E030E040EADD
:104E000050ECC701B6010E94FFBD1816ACF1F7FACD
:104E1000F094F7F8F094C092F304D092F404E09286
:104E2000F504F092F604E2EDFBE08491882341F072
:104E30009091C00095FFFCCF8093C6003196F5CFCE
:104E4000EFE6F3E08491882341F09091C00095FF54
:104E5000FCCF8093C6003196F5CF8091C00085FFCE
:104E6000FCCF8AE08093C6008091C00085FFFCCF14
:104E70008AE08093C6006EC3E2EDFBE08491882354
:104E800041F09091C00095FFFCCF8093C600319611
:104E9000F5CFE6E6F3E08491882341F09091C000DD
:104EA00095FFFCCF8093C6003196F5CFEEE5F3E099
:104EB0008491882341F09091C00095FFFCCF8093AE
:104EC000C6003196F5CF61EF7FEF8FEF9FEF0E9425
:104ED000D64CE6E5F3E08491882341F09091C00040
:104EE00095FFFCCF8093C6003196F5CF6BEF7FEF37
:104EF0008FEF9FEF0E94D64C8091C00085FFFCCFC2
:104F00008AE08093C60026C3E2EDFBE0849188230B
:104F100041F09091C00095FFFCCF8093C600319680
:104F2000F5CFEAE4F3E08491882341F09091C0004A
:104F300095FFFCCF8093C6003196F5CF8091C000DD
:104F400085FFFCCF8AE08093C6008091F3049091A6
:104F5000F404A091F504B091F604BC01CD01905881
:104F600042E00E94E84C8091C00085FFFCCF8AE0BF
:104F70008093C600EFC2C090E408D090E508E090AE
:104F8000E608F090E708C8A2D9A2EAA2FBA2009125
:104F9000E8081091E9082091EA083091EB080CA389
:104FA0001DA32EA33FA34091EC085091ED08609102
:104FB000EE087091EF0848A759A76AA77BA78091D0
:104FC000F0089091F108A091F208B091F3088CA735
:104FD0009DA7AEA7BFA7C982DA82EB82FC820D83B0
:104FE0001E832F83388749875A876B877C878D87F5
:104FF0009E87AF87B88B85E4A7D6882351F0CAD6A1
:105000009B01AC016CA57DA58EA59FA50E944CC1FE
:105010000AC020E030E040E050E46CA57DA58EA5FC
:105020009FA50E944BC16CA77DA78EA79FA720E0DC
:1050300030E040E752E460916D0270916E02809121
:105040006F02909170020E9428C2F0E4CF2EF2E12C
:10505000DF2E7B018C019E01245D3F4FAE01485D38
:105060005F4FBE016C5D7F4FCE0180960E94023B78
:105070008AE56AD6882321F08DD69B01AC0104C055
:1050800020E030E040E251E468A579A58AA59BA51F
:105090000E944CC168A779A78AA79BA720E030E0AF
:1050A00040E752E460916D0270916E0280916F0250
:1050B000909170020E9428C2E0E4CE2EE2E1DE2E42
:1050C0007B018C019E01245D3F4FAE01485D5F4F27
:1050D000BE016C5D7F4FCE0180960E94023B88E549
:1050E00033D6882371F056D69B01AC0168A179A113
:1050F0008AA19BA10E944CC168A379A38AA39BA308
:1051000008C080E090E0A0E4B0E488A399A3AAA33B
:10511000BBA389E519D6882331F03CD66CA37DA3C7
:105120008EA39FA308C080E090E0A0E4B0E48CA32D
:105130009DA3AEA3BFA320E030E040E752E460911E
:105140006D0270916E0280916F02909170020E94C8
:1051500028C250E4C52E52E1D52E7B018C019E0160
:10516000245D3F4FAE01485D5F4FBE016C5D7F4FD8
:10517000CE0180960E94023B8CE4E6D5882351F054
:1051800009D69B01AC016CA57DA58EA59FA50E94AB
:105190004CC10AC020E030E048EC52E46CA57DA58B
:1051A0008EA59FA50E944BC16CA77DA78EA79FA728
:1051B00020E030E040E752E460916D0270916E02B1
:1051C00080916F02909170020E9428C240E4C42E28
:1051D00042E1D42E7B018C019E01245D3F4FAE0144
:1051E000485D5F4FBE016C5D7F4FCE0180960E948F
:1051F000023B0E94A46A129A64E670E080E090E0AC
:105200000E9485858AE393E00E94998A10E080914C
:10521000091282FD1AC01F5F0E94506881E00E943F
:10522000B7970E94AC8A1111F2CF389A409A63E086
:1052300070E080E090E00E948585409863E070E037
:1052400080E090E00E948585E2CF8CE47DD58823C4
:1052500051F0A0D59B01AC016CA57DA58EA59FA5A5
:105260000E944BC10AC020E030E048EC52E46CA53B
:105270007DA58EA59FA50E944CC16CA77DA78EA77A
:105280009FA78CA59DA5AEA5BFA58093F008909380
:10529000F108A093F208B093F3080E948E6620E014
:1052A00030E040E752E460916D0270916E028091AF
:1052B0006F02909170020E9428C230E4C32E32E146
:1052C000D32E7B018C019E01245D3F4FAE01485DD2
:1052D0005F4FBE016C5D7F4FCE0180960E94023B06
:1052E00020E030E040E752E460916D0270916E0280
:1052F00080916F02909170020E9428C27B018C0104
:105300009E01245D3F4FAE01485D5F4FBE016B5F64
:105310007F4FCE0101960E94023B20E030E040E743
:1053200052E460916D0270916E0280916F029091D3
:1053300070020E9428C27B018C019E01245D3F4FB8
:10534000AE01475F5F4FBE016B5F7F4FCE0101969D
:105350000E94023B20E030E040E752E460916D02A1
:1053600070916E0280916F02909170020E9428C22B
:105370007B018C019E01235F3F4FAE01475F5F4F72
:10538000BE016B5F7F4FCE0101960E94023BE2C0DF
:105390001092D00B109208128091511290915212DB
:1053A000A0915312B09154128093551290935612BB
:1053B000A0935712B09358120E94F1B1CBC084E56C
:1053C000C3D4882309F482C0E5D40E9495C26093B7
:1053D00059126623A9F1E2EDFBE08491882341F0A4
:1053E0009091C00095FFFCCF8093C6003196F5CF19
:1053F000E6EFF3E08191882339F09091C00095FFAA
:10540000FCCF8093C600F6CF809159129091C000D6
:1054100095FFFCCF8093C600E8EFF3E081918823ED
:1054200039F09091C00095FFFCCF8093C600F6CF75
:105430008091C00085FFFCCF8AE08093C6008AC0BF
:1054400086E482D48823D1F0A5D46B017C016093DB
:10545000741270937512809376129093771220E0F5
:1054600030E0A9010E9477C3181644F4C0926D027F
:10547000D0926E02E0926F02F0927002E2EDFBE0D9
:105480008491882341F09091C00095FFFCCF8093D8
:10549000C6003196F5CFE9E0F4E08191882339F038
:1054A0009091C00095FFFCCF8093C600F6CF60912D
:1054B000401270E080E090E00E94D64C8091C000E5
:1054C00085FFFCCF8AE08093C60044C0E2EDFBE09C
:1054D0008491882341F09091C00095FFFCCF809388
:1054E000C6003196F5CFE7E2F3E08491882341F0DE
:1054F0009091C00095FFFCCF8093C6003196F5CF08
:105500008091BE069091BF0620E6289FF001299F5A
:10551000F00D1124E25CFA4F8191882339F09091CB
:10552000C00095FFFCCF8093C600F6CFE5E2F3E024
:105530008491882341F09091C00095FFFCCF809327
:10554000C6003196F5CF8091C00085FFFCCF8AE080
:105550008093C6000E94C9B1C2C380E090E00E945F
:105560001F950C941B1181E090E00E941F950C94F4
:10557000261182E090E00E941F950C946F11FFD3DA
:10558000AB01BC014093C40B5093C50B6093C60B99
:105590007093C70B8FE09BE00E94459DDBCFFAD351
:1055A0000E9490C28B010C941A180E94BD85DC01E8
:1055B000CB0184199509A609B709893E9340A10535
:1055C000B10508F476C0E1EFF4E08491882341F05E
:1055D0009091C00095FFFCCF8093C6003196F5CF27
:1055E000E091591224E0E29FF0011124E452F44FBB
:1055F000608171818281938141E00E94E84CEDEEEF
:10560000F4E08491882341F09091C00095FFFCCF95
:105610008093C6003196F5CF6091591270E080E01A
:1056200090E00E94D64CF1018491E9EEF4E08823E9
:1056300049F09091C00095FFFCCF8093C600319651
:105640008491F5CFB7FE03C0EDE8F3E024C00E94DB
:10565000BD8595018401005F184D2F4F3F4F2801F4
:105660003901461A570A680A790AC301B201A7012B
:1056700096010E9410C1CA01B9014AE00E94614C22
:105680008091C00085FFFCCF0DC09091C00095FFB8
:10569000FCCF8093C60081918111F7CF8091C0002B
:1056A00085FFFCCF8AE08093C6000E94BD852B0158
:1056B0003C010E94506880E00E94B7970E94AC8A2B
:1056C0002FEF82169206A206B20609F056C09091FC
:1056D000F70480915912992341F190E08C01000F59
:1056E000111F000F111F0452144F880F991FFC0146
:1056F000EC53FE4E60817181072E000C880B990BD4
:105700000E9405BE20E030E040E85FE30E944BC10C
:105710009B01AC01D8016D917D918D919C910E946E
:1057200077C387FF60C00C94081A90E08C01000FCB
:10573000111F000F111F0452144F880F991FFC01F5
:10574000EC53FE4E60817181072E000C880B990B83
:105750000E9405BE20E030E040E85FE30E944CC1BB
:105760009B01AC01F80160817181828193810E946B
:10577000FFBD1816C4F50C94081AB7FE02C00C94AD
:10578000081A8091591290E08C01000F111F000F30
:10579000111F0452144F880F991FFC01EC53FE4E49
:1057A00060817181072E000C880B990B0E9405BE49
:1057B0009B01AC01D8016D917D918D919C910E94CE
:1057C0004BC10E9490C297FF07C09095809570953D
:1057D00061957F4F8F4F9F4F643071058105910513
:1057E00014F40C94081A0E94BD854B015C010C94C2
:1057F000081A8BED94E00E948C8A0E94BD8560930C
:10580000D40B7093D50B8093D60B9093D70B0E943B
:10581000BD8560933C1270933D1280933E1290932D
:105820003F1298CE0E94A46A88E58ED2882319F090
:105830005F9A1092260589E587D2882319F08A9A03
:10584000109227058AE580D2882351F09FB7F894FB
:10585000809108018160809308019FBF1092280504
:1058600085E472D2882309F475CE129A73CEA0967D
:105870008CAC9DACAEACBFACA097880E991EAA1E96
:10588000BB1EA0962CAD3DAD4EAD5FADA097281BC5
:10589000390B4A0B5B0BCA01B90122962CAD3DAD09
:1058A0004EAD5FAD22970E9401C1A50194010E94F7
:1058B000E2C4D301C201820F931FA41FB51F84311C
:1058C0009105A105B1050CF12C013D018C3E91051E
:1058D000A105B1052CF04BEE442E512C612C712CFE
:1058E00040E84416510461047104FCF08EEF90E02E
:1058F000A0E0B0E084199509A609B70922968CAFFB
:105900009DAFAEAFBFAF229716C034E1432E512CEE
:10591000612C712C24E130E040E050E022962CAF65
:105920003DAF4EAF5FAF229706C022964CAE5DAE44
:105930006EAE7FAE2297EDE1F3E08491882341F0D3
:105940009091C00095FFFCCF8093C6003196F5CFB3
:10595000C301B2010E94D64CE8E1F3E084918823B0
:1059600041F09091C00095FFFCCF8093C600319626
:10597000F5CF22966CAD7DAD8EAD9FAD22970E9486
:10598000D64CE1E1F3E08491882341F09091C0008E
:1059900095FFFCCF8093C6003196F5CF42E02B9661
:1059A0006FAD2B9769967FAD69976A968FAD6A97B1
:1059B0006B969FAD6B970E94E84CEAE0F3E0849110
:1059C000882341F09091C00095FFFCCF8093C600E2
:1059D0003196F5CF42E065966FAD659766967FADDF
:1059E000669767968FAD679768969FAD68970E9498
:1059F000E84C8091C00085FFFCCF8AE08093C60010
:105A000064962EAD3FAD6497233031050CF4B5C8D4
:105A100022966CAD7DAD8EAD9FAD22970E9405BEE6
:105A200020E030E040E850E40E9435BA6B017C0190
:105A30002B962FAD2B9769963FAD69976A964FAD20
:105A40006A976B965FAD6B9765966FAD6597669637
:105A50007FAD669767968FAD679768969FAD68979D
:105A60000E944BC120ED3FE049E450E40E9435BA6A
:105A700020E030E040E05FE30E9435BA9B01AC01DA
:105A8000C701B6010E9428C26B017C01C501B401A7
:105A90000E9405BE20E030E04AE754E40E9428C29C
:105AA0004B015C01E4E0F3E08491882341F09091A4
:105AB000C00095FFFCCF8093C6003196F5CF42E041
:105AC000C701B6010E94E84CEEEFF2E08491882312
:105AD00041F09091C00095FFFCCF8093C6003196B5
